{
  "contractName": "DutchAuction",
  "abi": [
    {
      "inputs": [
        {
          "internalType": "uint256",
          "name": "_startingPrice",
          "type": "uint256"
        },
        {
          "internalType": "uint256",
          "name": "_priceDeductionRate",
          "type": "uint256"
        },
        {
          "internalType": "address",
          "name": "_nft",
          "type": "address"
        },
        {
          "internalType": "uint256",
          "name": "_nftId",
          "type": "uint256"
        }
      ],
      "stateMutability": "nonpayable",
      "type": "constructor"
    },
    {
      "anonymous": false,
      "inputs": [
        {
          "indexed": false,
          "internalType": "address",
          "name": "winner",
          "type": "address"
        },
        {
          "indexed": false,
          "internalType": "uint256",
          "name": "amount",
          "type": "uint256"
        }
      ],
      "name": "Buy",
      "type": "event"
    },
    {
      "inputs": [],
      "name": "expiresAt",
      "outputs": [
        {
          "internalType": "uint256",
          "name": "",
          "type": "uint256"
        }
      ],
      "stateMutability": "view",
      "type": "function"
    },
    {
      "inputs": [],
      "name": "nft",
      "outputs": [
        {
          "internalType": "contract IERC721",
          "name": "",
          "type": "address"
        }
      ],
      "stateMutability": "view",
      "type": "function"
    },
    {
      "inputs": [],
      "name": "nftId",
      "outputs": [
        {
          "internalType": "uint256",
          "name": "",
          "type": "uint256"
        }
      ],
      "stateMutability": "view",
      "type": "function"
    },
    {
      "inputs": [],
      "name": "priceDeductionRate",
      "outputs": [
        {
          "internalType": "uint256",
          "name": "",
          "type": "uint256"
        }
      ],
      "stateMutability": "view",
      "type": "function"
    },
    {
      "inputs": [],
      "name": "seller",
      "outputs": [
        {
          "internalType": "address payable",
          "name": "",
          "type": "address"
        }
      ],
      "stateMutability": "view",
      "type": "function"
    },
    {
      "inputs": [],
      "name": "startAt",
      "outputs": [
        {
          "internalType": "uint256",
          "name": "",
          "type": "uint256"
        }
      ],
      "stateMutability": "view",
      "type": "function"
    },
    {
      "inputs": [],
      "name": "startingPrice",
      "outputs": [
        {
          "internalType": "uint256",
          "name": "",
          "type": "uint256"
        }
      ],
      "stateMutability": "view",
      "type": "function"
    },
    {
      "inputs": [],
      "name": "winner",
      "outputs": [
        {
          "internalType": "address",
          "name": "",
          "type": "address"
        }
      ],
      "stateMutability": "view",
      "type": "function"
    },
    {
      "inputs": [],
      "name": "buy",
      "outputs": [],
      "stateMutability": "payable",
      "type": "function"
    }
  ],
  "bytecode": "0x60c06040523480156200001157600080fd5b5060405162000c6938038062000c6983398181016040528101906200003791906200018e565b336000806101000a81548173ffffffffffffffffffffffffffffffffffffffff021916908373ffffffffffffffffffffffffffffffffffffffff160217905550836001819055504260028190555062093a80426200009691906200022f565b600381905550826004819055508173ffffffffffffffffffffffffffffffffffffffff1660808173ffffffffffffffffffffffffffffffffffffffff16815250508060a08181525050505050506200028c565b600080fd5b6000819050919050565b6200010381620000ee565b81146200010f57600080fd5b50565b6000815190506200012381620000f8565b92915050565b600073ffffffffffffffffffffffffffffffffffffffff82169050919050565b6000620001568262000129565b9050919050565b620001688162000149565b81146200017457600080fd5b50565b60008151905062000188816200015d565b92915050565b60008060008060808587031215620001ab57620001aa620000e9565b5b6000620001bb8782880162000112565b9450506020620001ce8782880162000112565b9350506040620001e18782880162000177565b9250506060620001f48782880162000112565b91505092959194509250565b7f4e487b7100000000000000000000000000000000000000000000000000000000600052601160045260246000fd5b60006200023c82620000ee565b91506200024983620000ee565b9250827fffffffffffffffffffffffffffffffffffffffffffffffffffffffffffffffff0382111562000281576200028062000200565b5b828201905092915050565b60805160a0516109a9620002c06000396000818161042a015261054001526000818161021301526103cc01526109a96000f3fe6080604052600436106100865760003560e01c8063c6bc518211610059578063c6bc518214610116578063c744656514610141578063d6fbf2021461016c578063df16744c14610197578063dfbf53ae146101c257610086565b806308551a531461008b57806347ccca02146100b65780638622a689146100e1578063a6f2ae3a1461010c575b600080fd5b34801561009757600080fd5b506100a06101ed565b6040516100ad91906105db565b60405180910390f35b3480156100c257600080fd5b506100cb610211565b6040516100d89190610655565b60405180910390f35b3480156100ed57600080fd5b506100f6610235565b6040516101039190610689565b60405180910390f35b61011461023b565b005b34801561012257600080fd5b5061012b61053e565b6040516101389190610689565b60405180910390f35b34801561014d57600080fd5b50610156610562565b6040516101639190610689565b60405180910390f35b34801561017857600080fd5b50610181610568565b60405161018e9190610689565b60405180910390f35b3480156101a357600080fd5b506101ac61056e565b6040516101b99190610689565b60405180910390f35b3480156101ce57600080fd5b506101d7610574565b6040516101e491906106c5565b60405180910390f35b60008054906101000a900473ffffffffffffffffffffffffffffffffffffffff1681565b7f000000000000000000000000000000000000000000000000000000000000000081565b60035481565b600354421061027f576040517f08c379a00000000000000000000000000000000000000000000000000000000081526004016102769061073d565b60405180910390fd5b600073ffffffffffffffffffffffffffffffffffffffff16600560009054906101000a900473ffffffffffffffffffffffffffffffffffffffff1673ffffffffffffffffffffffffffffffffffffffff1614610310576040517f08c379a0000000000000000000000000000000000000000000000000000000008152600401610307906107a9565b60405180910390fd5b60006002544261032091906107f8565b9050600081600454610332919061082c565b905060008160015461034491906107f8565b905080341015610389576040517f08c379a0000000000000000000000000000000000000000000000000000000008152600401610380906108d2565b60405180910390fd5b33600560006101000a81548173ffffffffffffffffffffffffffffffffffffffff021916908373ffffffffffffffffffffffffffffffffffffffff1602179055507f000000000000000000000000000000000000000000000000000000000000000073ffffffffffffffffffffffffffffffffffffffff166323b872dd60008054906101000a900473ffffffffffffffffffffffffffffffffffffffff16337f00000000000000000000000000000000000000000000000000000000000000006040518463ffffffff1660e01b815260040161046793929190610913565b600060405180830381600087803b15801561048157600080fd5b505af1158015610495573d6000803e3d6000fd5b5050505060008054906101000a900473ffffffffffffffffffffffffffffffffffffffff1673ffffffffffffffffffffffffffffffffffffffff166108fc349081150290604051600060405180830381858888f193505050501580156104ff573d6000803e3d6000fd5b507fe3d4187f6ca4248660cc0ac8b8056515bac4a8132be2eca31d6d0cc170722a7e333460405161053192919061094a565b60405180910390a1505050565b7f000000000000000000000000000000000000000000000000000000000000000081565b60025481565b60015481565b60045481565b600560009054906101000a900473ffffffffffffffffffffffffffffffffffffffff1681565b600073ffffffffffffffffffffffffffffffffffffffff82169050919050565b60006105c58261059a565b9050919050565b6105d5816105ba565b82525050565b60006020820190506105f060008301846105cc565b92915050565b6000819050919050565b600061061b6106166106118461059a565b6105f6565b61059a565b9050919050565b600061062d82610600565b9050919050565b600061063f82610622565b9050919050565b61064f81610634565b82525050565b600060208201905061066a6000830184610646565b92915050565b6000819050919050565b61068381610670565b82525050565b600060208201905061069e600083018461067a565b92915050565b60006106af8261059a565b9050919050565b6106bf816106a4565b82525050565b60006020820190506106da60008301846106b6565b92915050565b600082825260208201905092915050565b7f61756374696f6e20657870697265640000000000000000000000000000000000600082015250565b6000610727600f836106e0565b9150610732826106f1565b602082019050919050565b600060208201905081810360008301526107568161071a565b9050919050565b7f61756374696f6e2066696e697368656400000000000000000000000000000000600082015250565b60006107936010836106e0565b915061079e8261075d565b602082019050919050565b600060208201905081810360008301526107c281610786565b9050919050565b7f4e487b7100000000000000000000000000000000000000000000000000000000600052601160045260246000fd5b600061080382610670565b915061080e83610670565b925082821015610821576108206107c9565b5b828203905092915050565b600061083782610670565b915061084283610670565b9250817fffffffffffffffffffffffffffffffffffffffffffffffffffffffffffffffff048311821515161561087b5761087a6107c9565b5b828202905092915050565b7f455448203c207072696365000000000000000000000000000000000000000000600082015250565b60006108bc600b836106e0565b91506108c782610886565b602082019050919050565b600060208201905081810360008301526108eb816108af565b9050919050565b60006108fd82610622565b9050919050565b61090d816108f2565b82525050565b60006060820190506109286000830186610904565b61093560208301856106b6565b610942604083018461067a565b949350505050565b600060408201905061095f60008301856106b6565b61096c602083018461067a565b939250505056fea2646970667358221220b416b25b04a8b262dd2a9b32418ecca9ffb8bac3e33a131dfa9f9e6c1946372064736f6c634300080b0033",
  "immutableReferences": {
    "139": [
      {
        "length": 32,
        "start": 531
      },
      {
        "length": 32,
        "start": 972
      }
    ],
    "141": [
      {
        "length": 32,
        "start": 1066
      },
      {
        "length": 32,
        "start": 1344
      }
    ]
  },
  "source": "// SPDX-License-Identifier: MIT\npragma solidity ^0.8.10;\n\nimport \"@openzeppelin/contracts/token/ERC721/IERC721.sol\";\n\ncontract DutchAuction {\n    event Buy(address winner, uint amount);\n\n    IERC721 public immutable nft;\n    uint public immutable nftId;\n\n    address payable public seller;\n    uint public startingPrice;\n    uint public startAt;\n    uint public expiresAt;\n    uint public priceDeductionRate;\n    address public winner;\n\n    constructor(\n        uint _startingPrice,\n        uint _priceDeductionRate,\n        address _nft,\n        uint _nftId\n    ) {\n        seller = payable(msg.sender);\n        startingPrice = _startingPrice;\n        startAt = block.timestamp;\n        expiresAt = block.timestamp + 7 days;\n        priceDeductionRate = _priceDeductionRate;\n\n        nft = IERC721(_nft);\n        nftId = _nftId;\n    }\n    \n    function buy() external payable {\n        require(block.timestamp < expiresAt, \"auction expired\");\n        require(winner == address(0), \"auction finished\");\n\n        uint timeElapsed = block.timestamp - startAt;\n        uint deduction = priceDeductionRate * timeElapsed;\n        uint price = startingPrice - deduction;\n\n        require(msg.value >= price, \"ETH < price\");\n\n        winner = msg.sender;\n        nft.transferFrom(seller, msg.sender, nftId);\n        seller.transfer(msg.value);\n\n        emit Buy(msg.sender, msg.value);\n    }\n}",
  "sourcePath": "/Users/mac/Documents/GitHub/CodeSnippets/Solidity/polygon/contracts/DutchAuction.sol",
  "compiler": {
    "name": "solc",
    "version": "0.8.11+commit.d7f03943.Emscripten.clang"
  },
  "schemaVersion": "3.4.4",
  "updatedAt": "2021-12-25T14:06:22.134Z",
  "devdoc": {
    "kind": "dev",
    "methods": {},
    "version": 1
  },
  "userdoc": {
    "kind": "user",
    "methods": {},
    "version": 1
  }
}