{
  "contractName": "Factory",
  "abi": [
    {
      "anonymous": false,
      "inputs": [
        {
          "indexed": false,
          "internalType": "address",
          "name": "addr",
          "type": "address"
        },
        {
          "indexed": false,
          "internalType": "uint256",
          "name": "salt",
          "type": "uint256"
        }
      ],
      "name": "Deployed",
      "type": "event"
    },
    {
      "inputs": [
        {
          "internalType": "address",
          "name": "_owner",
          "type": "address"
        },
        {
          "internalType": "uint256",
          "name": "_foo",
          "type": "uint256"
        }
      ],
      "name": "getBytecode",
      "outputs": [
        {
          "internalType": "bytes",
          "name": "",
          "type": "bytes"
        }
      ],
      "stateMutability": "pure",
      "type": "function"
    },
    {
      "inputs": [
        {
          "internalType": "bytes",
          "name": "bytecode",
          "type": "bytes"
        },
        {
          "internalType": "uint256",
          "name": "_salt",
          "type": "uint256"
        }
      ],
      "name": "getAddess",
      "outputs": [
        {
          "internalType": "address",
          "name": "",
          "type": "address"
        }
      ],
      "stateMutability": "view",
      "type": "function"
    },
    {
      "inputs": [
        {
          "internalType": "bytes",
          "name": "bytecode",
          "type": "bytes"
        },
        {
          "internalType": "uint256",
          "name": "_salt",
          "type": "uint256"
        }
      ],
      "name": "deploy",
      "outputs": [],
      "stateMutability": "payable",
      "type": "function"
    }
  ],
  "bytecode": "0x608060405234801561001057600080fd5b50610a40806100206000396000f3fe6080604052600436106100345760003560e01c8063139d84281461003957806381871cbc146100765780639c4ae2d0146100b3575b600080fd5b34801561004557600080fd5b50610060600480360381019061005b9190610382565b6100cf565b60405161006d919061041f565b60405180910390f35b34801561008257600080fd5b5061009d60048036038101906100989190610466565b610119565b6040516100aa919061052e565b60405180910390f35b6100cd60048036038101906100c89190610382565b61018f565b005b60008060ff60f81b308486805190602001206040516020016100f49493929190610631565b6040516020818303038152906040528051906020012090508060001c91505092915050565b606060006040518060200161012d906101e5565b6020820181038252601f19601f82011660405250905080848460405160200161015792919061068e565b6040516020818303038152906040526040516020016101779291906106f3565b60405160208183030381529060405291505092915050565b60008183516020850134f59050803b6101a757600080fd5b7fb03c53b28e78a88e31607a27e1fa48234dce28d5d9d9ec7b295aeb02e674a1e181836040516101d892919061068e565b60405180910390a1505050565b6102f38061071883390190565b6000604051905090565b600080fd5b600080fd5b600080fd5b600080fd5b6000601f19601f8301169050919050565b7f4e487b7100000000000000000000000000000000000000000000000000000000600052604160045260246000fd5b61025982610210565b810181811067ffffffffffffffff8211171561027857610277610221565b5b80604052505050565b600061028b6101f2565b90506102978282610250565b919050565b600067ffffffffffffffff8211156102b7576102b6610221565b5b6102c082610210565b9050602081019050919050565b82818337600083830152505050565b60006102ef6102ea8461029c565b610281565b90508281526020810184848401111561030b5761030a61020b565b5b6103168482856102cd565b509392505050565b600082601f83011261033357610332610206565b5b81356103438482602086016102dc565b91505092915050565b6000819050919050565b61035f8161034c565b811461036a57600080fd5b50565b60008135905061037c81610356565b92915050565b60008060408385031215610399576103986101fc565b5b600083013567ffffffffffffffff8111156103b7576103b6610201565b5b6103c38582860161031e565b92505060206103d48582860161036d565b9150509250929050565b600073ffffffffffffffffffffffffffffffffffffffff82169050919050565b6000610409826103de565b9050919050565b610419816103fe565b82525050565b60006020820190506104346000830184610410565b92915050565b610443816103fe565b811461044e57600080fd5b50565b6000813590506104608161043a565b92915050565b6000806040838503121561047d5761047c6101fc565b5b600061048b85828601610451565b925050602061049c8582860161036d565b9150509250929050565b600081519050919050565b600082825260208201905092915050565b60005b838110156104e05780820151818401526020810190506104c5565b838111156104ef576000848401525b50505050565b6000610500826104a6565b61050a81856104b1565b935061051a8185602086016104c2565b61052381610210565b840191505092915050565b6000602082019050818103600083015261054881846104f5565b905092915050565b60007fff0000000000000000000000000000000000000000000000000000000000000082169050919050565b6000819050919050565b61059761059282610550565b61057c565b82525050565b60008160601b9050919050565b60006105b58261059d565b9050919050565b60006105c7826105aa565b9050919050565b6105df6105da826103fe565b6105bc565b82525050565b6000819050919050565b6106006105fb8261034c565b6105e5565b82525050565b6000819050919050565b6000819050919050565b61062b61062682610606565b610610565b82525050565b600061063d8287610586565b60018201915061064d82866105ce565b60148201915061065d82856105ef565b60208201915061066d828461061a565b60208201915081905095945050505050565b6106888161034c565b82525050565b60006040820190506106a36000830185610410565b6106b0602083018461067f565b9392505050565b600081905092915050565b60006106cd826104a6565b6106d781856106b7565b93506106e78185602086016104c2565b80840191505092915050565b60006106ff82856106c2565b915061070b82846106c2565b9150819050939250505056fe60806040526040516102f33803806102f38339818101604052810190610025919061010c565b816000806101000a81548173ffffffffffffffffffffffffffffffffffffffff021916908373ffffffffffffffffffffffffffffffffffffffff16021790555080600181905550505061014c565b600080fd5b600073ffffffffffffffffffffffffffffffffffffffff82169050919050565b60006100a382610078565b9050919050565b6100b381610098565b81146100be57600080fd5b50565b6000815190506100d0816100aa565b92915050565b6000819050919050565b6100e9816100d6565b81146100f457600080fd5b50565b600081519050610106816100e0565b92915050565b6000806040838503121561012357610122610073565b5b6000610131858286016100c1565b9250506020610142858286016100f7565b9150509250929050565b6101988061015b6000396000f3fe608060405234801561001057600080fd5b50600436106100415760003560e01c806312065fe0146100465780638da5cb5b14610064578063c298557814610082575b600080fd5b61004e6100a0565b60405161005b91906100eb565b60405180910390f35b61006c6100a8565b6040516100799190610147565b60405180910390f35b61008a6100cc565b60405161009791906100eb565b60405180910390f35b600047905090565b60008054906101000a900473ffffffffffffffffffffffffffffffffffffffff1681565b60015481565b6000819050919050565b6100e5816100d2565b82525050565b600060208201905061010060008301846100dc565b92915050565b600073ffffffffffffffffffffffffffffffffffffffff82169050919050565b600061013182610106565b9050919050565b61014181610126565b82525050565b600060208201905061015c6000830184610138565b9291505056fea26469706673582212201065dcd764a93685d58adcc23879149dc4bccd3a1510c461ae559e109a74fb1664736f6c634300080b0033a2646970667358221220b498fa465046cb9d0c99e0ee700c9057c9d87cdb458e20815ae31805a3dffedd64736f6c634300080b0033",
  "immutableReferences": {},
  "source": "// SPDX-License-Identifier: MIT\npragma solidity ^0.8.10;\n\ncontract Factory {\n    event Deployed(address addr, uint salt);\n\n    function getBytecode(address _owner, uint _foo) public pure returns (bytes memory) {\n        bytes memory bytecode = type(TestContract).creationCode;\n\n        return abi.encodePacked(bytecode, abi.encode(_owner, _foo));\n    }\n\n    function getAddess(bytes memory bytecode, uint _salt) public view returns (address) {\n        bytes32 hash = keccak256(\n            abi.encodePacked(bytes1(0xff), address(this), _salt, keccak256(bytecode))\n        );\n        return address(uint160(uint(hash)));\n    }\n\n    function deploy(bytes memory bytecode, uint _salt) public payable {\n        address addr;\n\n        assembly {\n            addr := create2(\n                callvalue(),\n                add(bytecode, 0x20),\n                mload(bytecode),\n                _salt\n            )\n\n            if iszero(extcodesize(addr)) {\n                revert(0, 0)\n            }\n        }\n\n        emit Deployed(addr, _salt);\n    }\n}\n\ncontract TestContract {\n    address public owner;\n    uint public foo;\n\n    constructor(address _owner, uint _foo) payable {\n        owner = _owner;\n        foo = _foo;\n    }\n\n    function getBalance() public view returns (uint) {\n        return address(this).balance;\n    }\n}",
  "sourcePath": "/Users/mac/Documents/GitHub/CodeSnippets/Solidity/polygon/contracts/Factory.sol",
  "compiler": {
    "name": "solc",
    "version": "0.8.11+commit.d7f03943.Emscripten.clang"
  },
  "schemaVersion": "3.4.4",
  "updatedAt": "2021-12-25T09:50:58.027Z",
  "devdoc": {
    "kind": "dev",
    "methods": {},
    "version": 1
  },
  "userdoc": {
    "kind": "user",
    "methods": {},
    "version": 1
  }
}