{
  "contractName": "FindThisHash",
  "abi": [
    {
      "inputs": [],
      "stateMutability": "payable",
      "type": "constructor"
    },
    {
      "inputs": [],
      "name": "hash",
      "outputs": [
        {
          "internalType": "bytes32",
          "name": "",
          "type": "bytes32"
        }
      ],
      "stateMutability": "view",
      "type": "function"
    },
    {
      "inputs": [
        {
          "internalType": "string",
          "name": "solution",
          "type": "string"
        }
      ],
      "name": "solve",
      "outputs": [],
      "stateMutability": "nonpayable",
      "type": "function"
    }
  ],
  "bytecode": "0x60806040526105ac806100136000396000f3fe608060405234801561001057600080fd5b50600436106100365760003560e01c806309bd5a601461003b57806376fe1e9214610059575b600080fd5b610043610075565b60405161005091906101f8565b60405180910390f35b610073600480360381019061006e919061036d565b61009c565b005b7f564ccaf7594d66b1eaaea24fe01f0585bf52ee70852af4eac0cc4b04711cd0e260001b81565b806040516020016100ad9190610430565b604051602081830303815290604052805190602001207f564ccaf7594d66b1eaaea24fe01f0585bf52ee70852af4eac0cc4b04711cd0e260001b14610127576040517f08c379a000000000000000000000000000000000000000000000000000000000815260040161011e906104a4565b60405180910390fd5b60003373ffffffffffffffffffffffffffffffffffffffff16678ac7230489e80000604051610155906104f5565b60006040518083038185875af1925050503d8060008114610192576040519150601f19603f3d011682016040523d82523d6000602084013e610197565b606091505b50509050806101db576040517f08c379a00000000000000000000000000000000000000000000000000000000081526004016101d290610556565b60405180910390fd5b5050565b6000819050919050565b6101f2816101df565b82525050565b600060208201905061020d60008301846101e9565b92915050565b6000604051905090565b600080fd5b600080fd5b600080fd5b600080fd5b6000601f19601f8301169050919050565b7f4e487b7100000000000000000000000000000000000000000000000000000000600052604160045260246000fd5b61027a82610231565b810181811067ffffffffffffffff8211171561029957610298610242565b5b80604052505050565b60006102ac610213565b90506102b88282610271565b919050565b600067ffffffffffffffff8211156102d8576102d7610242565b5b6102e182610231565b9050602081019050919050565b82818337600083830152505050565b600061031061030b846102bd565b6102a2565b90508281526020810184848401111561032c5761032b61022c565b5b6103378482856102ee565b509392505050565b600082601f83011261035457610353610227565b5b81356103648482602086016102fd565b91505092915050565b6000602082840312156103835761038261021d565b5b600082013567ffffffffffffffff8111156103a1576103a0610222565b5b6103ad8482850161033f565b91505092915050565b600081519050919050565b600081905092915050565b60005b838110156103ea5780820151818401526020810190506103cf565b838111156103f9576000848401525b50505050565b600061040a826103b6565b61041481856103c1565b93506104248185602086016103cc565b80840191505092915050565b600061043c82846103ff565b915081905092915050565b600082825260208201905092915050565b7f696e636f727265637420616e7377657200000000000000000000000000000000600082015250565b600061048e601083610447565b915061049982610458565b602082019050919050565b600060208201905081810360008301526104bd81610481565b9050919050565b600081905092915050565b50565b60006104df6000836104c4565b91506104ea826104cf565b600082019050919050565b6000610500826104d2565b9150819050919050565b7f6661696c656420746f2073656e64206574686572000000000000000000000000600082015250565b6000610540601483610447565b915061054b8261050a565b602082019050919050565b6000602082019050818103600083015261056f81610533565b905091905056fea2646970667358221220b78ee7563ef04f00fa07423b6f0b34a288949610e5fb83dac152b52ce2ffd46264736f6c634300080b0033",
  "immutableReferences": {},
  "source": "// SPDX-License-Identifier: MIT\npragma solidity ^0.8.10;\n\ncontract FindThisHash {\n    bytes32 public constant hash = \n        0x564ccaf7594d66b1eaaea24fe01f0585bf52ee70852af4eac0cc4b04711cd0e2;\n    \n    constructor() payable {}\n\n    function solve(string memory solution) public {\n        require(hash == keccak256(abi.encodePacked(solution)), \"incorrect answer\");\n\n        (bool sent, ) = msg.sender.call{value: 10 ether}(\"\");\n        require(sent, \"failed to send ether\");\n    }\n}",
  "sourcePath": "/Users/mac/Documents/GitHub/CodeSnippets/Solidity/polygon/contracts/FindThisHash.sol",
  "compiler": {
    "name": "solc",
    "version": "0.8.11+commit.d7f03943.Emscripten.clang"
  },
  "schemaVersion": "3.4.4",
  "updatedAt": "2021-12-25T15:01:33.101Z",
  "devdoc": {
    "kind": "dev",
    "methods": {},
    "version": 1
  },
  "userdoc": {
    "kind": "user",
    "methods": {},
    "version": 1
  }
}