{
  "contractName": "HashMarket",
  "abi": [
    {
      "anonymous": false,
      "inputs": [
        {
          "indexed": false,
          "internalType": "address",
          "name": "owner",
          "type": "address"
        },
        {
          "indexed": false,
          "internalType": "uint256",
          "name": "amount",
          "type": "uint256"
        }
      ],
      "name": "FundsPulled",
      "type": "event"
    },
    {
      "anonymous": false,
      "inputs": [
        {
          "indexed": false,
          "internalType": "bytes32",
          "name": "name",
          "type": "bytes32"
        },
        {
          "indexed": false,
          "internalType": "uint256",
          "name": "price",
          "type": "uint256"
        },
        {
          "indexed": false,
          "internalType": "address",
          "name": "seller",
          "type": "address"
        }
      ],
      "name": "ItemAdded",
      "type": "event"
    },
    {
      "anonymous": false,
      "inputs": [
        {
          "indexed": false,
          "internalType": "uint256",
          "name": "itemId",
          "type": "uint256"
        },
        {
          "indexed": false,
          "internalType": "address",
          "name": "buyer",
          "type": "address"
        },
        {
          "indexed": false,
          "internalType": "address",
          "name": "seller",
          "type": "address"
        }
      ],
      "name": "ItemPurchased",
      "type": "event"
    },
    {
      "anonymous": false,
      "inputs": [
        {
          "indexed": false,
          "internalType": "uint256",
          "name": "itemId",
          "type": "uint256"
        }
      ],
      "name": "ItemRemoved",
      "type": "event"
    },
    {
      "inputs": [
        {
          "internalType": "address",
          "name": "",
          "type": "address"
        }
      ],
      "name": "_pendingWithdrawls",
      "outputs": [
        {
          "internalType": "uint256",
          "name": "",
          "type": "uint256"
        }
      ],
      "stateMutability": "view",
      "type": "function"
    },
    {
      "inputs": [
        {
          "internalType": "bytes32",
          "name": "_name",
          "type": "bytes32"
        },
        {
          "internalType": "uint256",
          "name": "_price",
          "type": "uint256"
        }
      ],
      "name": "addNewItem",
      "outputs": [
        {
          "internalType": "uint256",
          "name": "",
          "type": "uint256"
        }
      ],
      "stateMutability": "nonpayable",
      "type": "function"
    },
    {
      "inputs": [
        {
          "internalType": "uint256",
          "name": "_itemId",
          "type": "uint256"
        }
      ],
      "name": "getItem",
      "outputs": [
        {
          "internalType": "bytes32",
          "name": "",
          "type": "bytes32"
        },
        {
          "internalType": "uint256",
          "name": "",
          "type": "uint256"
        },
        {
          "internalType": "address",
          "name": "",
          "type": "address"
        },
        {
          "internalType": "uint256",
          "name": "",
          "type": "uint256"
        }
      ],
      "stateMutability": "view",
      "type": "function"
    },
    {
      "inputs": [
        {
          "internalType": "uint256",
          "name": "_itemId",
          "type": "uint256"
        }
      ],
      "name": "buyItem",
      "outputs": [],
      "stateMutability": "payable",
      "type": "function"
    },
    {
      "inputs": [
        {
          "internalType": "uint256",
          "name": "_itemId",
          "type": "uint256"
        }
      ],
      "name": "removeItem",
      "outputs": [],
      "stateMutability": "nonpayable",
      "type": "function"
    },
    {
      "inputs": [],
      "name": "pullFunds",
      "outputs": [
        {
          "internalType": "bool",
          "name": "",
          "type": "bool"
        }
      ],
      "stateMutability": "nonpayable",
      "type": "function"
    }
  ],
  "bytecode": "0x608060405234801561001057600080fd5b50610c45806100206000396000f3fe6080604052600436106100555760003560e01c806301338d5d1461005a5780633129e7731461009757806371329171146100d7578063d9db2ec714610100578063e43a0bb21461013d578063e7fb74c714610168575b600080fd5b34801561006657600080fd5b50610081600480360381019061007c91906108fc565b610184565b60405161008e919061094b565b60405180910390f35b3480156100a357600080fd5b506100be60048036038101906100b99190610966565b6102dc565b6040516100ce94939291906109e3565b60405180910390f35b3480156100e357600080fd5b506100fe60048036038101906100f99190610966565b6103eb565b005b34801561010c57600080fd5b5061012760048036038101906101229190610a54565b610597565b604051610134919061094b565b60405180910390f35b34801561014957600080fd5b506101526105af565b60405161015f9190610a9c565b60405180910390f35b610182600480360381019061017d9190610966565b6106c8565b005b60008060405180608001604052808581526020018481526020013373ffffffffffffffffffffffffffffffffffffffff168152602001600060028111156101ce576101cd610ab7565b5b8152509080600181540180825580915050600190039060005260206000209060030201600090919091909150600082015181600001556020820151816001015560408201518160020160006101000a81548173ffffffffffffffffffffffffffffffffffffffff021916908373ffffffffffffffffffffffffffffffffffffffff16021790555060608201518160020160146101000a81548160ff021916908360028111156102805761027f610ab7565b5b021790555050507f1417a1fe8928926d99d994b5448477f9b5c50107df1474d7cad96769b9fd0ac88383336040516102ba93929190610ae6565b60405180910390a160016000805490506102d49190610b4c565b905092915050565b60008060008084600073ffffffffffffffffffffffffffffffffffffffff166000828154811061030f5761030e610b80565b5b906000526020600020906003020160020160009054906101000a900473ffffffffffffffffffffffffffffffffffffffff1673ffffffffffffffffffffffffffffffffffffffff16141561036257600080fd5b600080878154811061037757610376610b80565b5b90600052602060002090600302019050806000015481600101548260020160009054906101000a900473ffffffffffffffffffffffffffffffffffffffff168360020160149054906101000a900460ff1660028111156103da576103d9610ab7565b5b955095509550955050509193509193565b80600073ffffffffffffffffffffffffffffffffffffffff166000828154811061041857610417610b80565b5b906000526020600020906003020160020160009054906101000a900473ffffffffffffffffffffffffffffffffffffffff1673ffffffffffffffffffffffffffffffffffffffff16141561046b57600080fd5b60008083815481106104805761047f610b80565b5b906000526020600020906003020190503373ffffffffffffffffffffffffffffffffffffffff168160020160009054906101000a900473ffffffffffffffffffffffffffffffffffffffff1673ffffffffffffffffffffffffffffffffffffffff16146104ec57600080fd5b60006002811115610500576104ff610ab7565b5b8160020160149054906101000a900460ff16600281111561052457610523610ab7565b5b1461052e57600080fd5b60028160020160146101000a81548160ff0219169083600281111561055657610555610ab7565b5b02179055507fa54eda4149a0fb9258911733973ecf1f6762357ed371fc6d1e63123bbce23bed8360405161058a919061094b565b60405180910390a1505050565b60016020528060005260406000206000915090505481565b600080600160003373ffffffffffffffffffffffffffffffffffffffff1673ffffffffffffffffffffffffffffffffffffffff16815260200190815260200160002054116105fc57600080fd5b6000600160003373ffffffffffffffffffffffffffffffffffffffff1673ffffffffffffffffffffffffffffffffffffffff1681526020019081526020016000205490503373ffffffffffffffffffffffffffffffffffffffff166108fc829081150290604051600060405180830381858888f19350505050158015610686573d6000803e3d6000fd5b507f1a6b3ffc38e569eb77b736c56f6d826b44ad9f3df5f63ec4eac3dcb444668ea533826040516106b8929190610baf565b60405180910390a1600191505090565b80600073ffffffffffffffffffffffffffffffffffffffff16600082815481106106f5576106f4610b80565b5b906000526020600020906003020160020160009054906101000a900473ffffffffffffffffffffffffffffffffffffffff1673ffffffffffffffffffffffffffffffffffffffff16141561074857600080fd5b600080838154811061075d5761075c610b80565b5b906000526020600020906003020190506000600281111561078157610780610ab7565b5b8160020160149054906101000a900460ff1660028111156107a5576107a4610ab7565b5b146107af57600080fd5b348160010154146107bf57600080fd5b34600160008360020160009054906101000a900473ffffffffffffffffffffffffffffffffffffffff1673ffffffffffffffffffffffffffffffffffffffff1673ffffffffffffffffffffffffffffffffffffffff168152602001908152602001600020819055507f3d33dab2887eb74204441fe6858b6ee245b3875af43d57969005ca2ea686395083338360020160009054906101000a900473ffffffffffffffffffffffffffffffffffffffff1660405161087e93929190610bd8565b60405180910390a1505050565b600080fd5b6000819050919050565b6108a381610890565b81146108ae57600080fd5b50565b6000813590506108c08161089a565b92915050565b6000819050919050565b6108d9816108c6565b81146108e457600080fd5b50565b6000813590506108f6816108d0565b92915050565b600080604083850312156109135761091261088b565b5b6000610921858286016108b1565b9250506020610932858286016108e7565b9150509250929050565b610945816108c6565b82525050565b6000602082019050610960600083018461093c565b92915050565b60006020828403121561097c5761097b61088b565b5b600061098a848285016108e7565b91505092915050565b61099c81610890565b82525050565b600073ffffffffffffffffffffffffffffffffffffffff82169050919050565b60006109cd826109a2565b9050919050565b6109dd816109c2565b82525050565b60006080820190506109f86000830187610993565b610a05602083018661093c565b610a1260408301856109d4565b610a1f606083018461093c565b95945050505050565b610a31816109c2565b8114610a3c57600080fd5b50565b600081359050610a4e81610a28565b92915050565b600060208284031215610a6a57610a6961088b565b5b6000610a7884828501610a3f565b91505092915050565b60008115159050919050565b610a9681610a81565b82525050565b6000602082019050610ab16000830184610a8d565b92915050565b7f4e487b7100000000000000000000000000000000000000000000000000000000600052602160045260246000fd5b6000606082019050610afb6000830186610993565b610b08602083018561093c565b610b1560408301846109d4565b949350505050565b7f4e487b7100000000000000000000000000000000000000000000000000000000600052601160045260246000fd5b6000610b57826108c6565b9150610b62836108c6565b925082821015610b7557610b74610b1d565b5b828203905092915050565b7f4e487b7100000000000000000000000000000000000000000000000000000000600052603260045260246000fd5b6000604082019050610bc460008301856109d4565b610bd1602083018461093c565b9392505050565b6000606082019050610bed600083018661093c565b610bfa60208301856109d4565b610c0760408301846109d4565b94935050505056fea2646970667358221220f2437abc61ab5f0b8f32b105d0909efb28e71300734cddee195e8c59204105cc64736f6c634300080b0033",
  "immutableReferences": {},
  "source": "// SPDX-License-Identifier: MIT\npragma solidity ^0.8.10;\n\ncontract HashMarket {\n    enum ItemStatus {\n        active,\n        sold,\n        removed\n    }\n\n    struct Item {\n        bytes32 name;\n        uint price;\n        address seller;\n        ItemStatus status;\n    }\n\n    event ItemAdded(bytes32 name, uint price, address seller);\n    event ItemPurchased(uint itemId, address buyer, address seller);\n    event ItemRemoved(uint itemId);\n    event FundsPulled(address owner, uint amount);\n\n    Item[] private _items;\n    mapping(address => uint) public _pendingWithdrawls;\n\n    modifier onlyIfItemExists(uint _itemId) {\n        require(_items[_itemId].seller != address(0));\n        _;\n    }\n\n    function addNewItem(bytes32 _name, uint _price) public returns (uint) {\n        _items.push(Item({\n            name: _name,\n            price: _price,\n            seller: msg.sender,\n            status: ItemStatus.active\n        }));\n\n        emit ItemAdded(_name, _price, msg.sender);\n\n        return _items.length - 1;\n    }\n\n    function getItem(uint _itemId) public view onlyIfItemExists(_itemId) returns (bytes32, uint, address, uint) {\n        Item storage item = _items[_itemId];\n        return (item.name, item.price, item.seller, uint(item.status));\n    }\n\n    function buyItem(uint _itemId) public payable onlyIfItemExists(_itemId) {\n        Item storage item = _items[_itemId];\n\n        require(item.status == ItemStatus.active);\n        require(item.price == msg.value);\n\n        _pendingWithdrawls[item.seller] = msg.value;\n\n        emit ItemPurchased(_itemId, msg.sender, item.seller);\n    }\n\n    function removeItem(uint _itemId) public onlyIfItemExists(_itemId) {\n        Item storage item = _items[_itemId];\n\n        require(item.seller == msg.sender);\n        require(item.status == ItemStatus.active);\n\n        item.status = ItemStatus.removed;\n\n        emit ItemRemoved(_itemId);\n    }\n\n    function pullFunds() public returns (bool) {\n        require(_pendingWithdrawls[msg.sender] > 0);\n\n        uint outstandingFundsAmount = _pendingWithdrawls[msg.sender];\n\n        payable(msg.sender).transfer(outstandingFundsAmount);\n\n        emit FundsPulled(msg.sender, outstandingFundsAmount);\n        return true;\n    }\n}",
  "sourcePath": "/Users/mac/Documents/GitHub/CodeSnippets/Solidity/polygon/contracts/HashMarket.sol",
  "compiler": {
    "name": "solc",
    "version": "0.8.11+commit.d7f03943.Emscripten.clang"
  },
  "schemaVersion": "3.4.4",
  "updatedAt": "2021-12-26T04:56:29.817Z",
  "devdoc": {
    "kind": "dev",
    "methods": {},
    "version": 1
  },
  "userdoc": {
    "kind": "user",
    "methods": {},
    "version": 1
  }
}