{
  "contractName": "Immutable",
  "abi": [
    {
      "inputs": [
        {
          "internalType": "uint256",
          "name": "_myUnit",
          "type": "uint256"
        }
      ],
      "stateMutability": "nonpayable",
      "type": "constructor"
    },
    {
      "inputs": [],
      "name": "MY_ADDRESS",
      "outputs": [
        {
          "internalType": "address",
          "name": "",
          "type": "address"
        }
      ],
      "stateMutability": "view",
      "type": "function"
    },
    {
      "inputs": [],
      "name": "MY_UNIT",
      "outputs": [
        {
          "internalType": "uint256",
          "name": "",
          "type": "uint256"
        }
      ],
      "stateMutability": "view",
      "type": "function"
    }
  ],
  "bytecode": "0x60c060405234801561001057600080fd5b50604051610284380380610284833981810160405281019061003291906100af565b3373ffffffffffffffffffffffffffffffffffffffff1660808173ffffffffffffffffffffffffffffffffffffffff16815250508060a08181525050506100dc565b600080fd5b6000819050919050565b61008c81610079565b811461009757600080fd5b50565b6000815190506100a981610083565b92915050565b6000602082840312156100c5576100c4610074565b5b60006100d38482850161009a565b91505092915050565b60805160a0516101856100ff6000396000609d01526000607901526101856000f3fe608060405234801561001057600080fd5b50600436106100365760003560e01c80633a756cec1461003b5780633fdcd19914610059575b600080fd5b610043610077565b6040516100509190610100565b60405180910390f35b61006161009b565b60405161006e9190610134565b60405180910390f35b7f000000000000000000000000000000000000000000000000000000000000000081565b7f000000000000000000000000000000000000000000000000000000000000000081565b600073ffffffffffffffffffffffffffffffffffffffff82169050919050565b60006100ea826100bf565b9050919050565b6100fa816100df565b82525050565b600060208201905061011560008301846100f1565b92915050565b6000819050919050565b61012e8161011b565b82525050565b60006020820190506101496000830184610125565b9291505056fea2646970667358221220fffe9d4de89ab2d251bc90b97b4bb0ffc6686ddd60d3996e4f89fb386231b96964736f6c634300080b0033",
  "immutableReferences": {
    "3": [
      {
        "length": 32,
        "start": 121
      }
    ],
    "5": [
      {
        "length": 32,
        "start": 157
      }
    ]
  },
  "source": "// SPDX-License-Identifier: MIT\npragma solidity ^0.8.10;\n\ncontract Immutable {\n    address public immutable MY_ADDRESS;\n    uint public immutable MY_UNIT;\n\n    constructor(uint _myUnit) {\n        MY_ADDRESS = msg.sender;\n        MY_UNIT = _myUnit;\n    }\n}",
  "sourcePath": "/Users/mac/Documents/GitHub/CodeSnippets/Solidity/polygon/contracts/Immutable.sol",
  "compiler": {
    "name": "solc",
    "version": "0.8.11+commit.d7f03943.Emscripten.clang"
  },
  "schemaVersion": "3.4.4",
  "updatedAt": "2021-12-25T08:35:05.941Z",
  "devdoc": {
    "kind": "dev",
    "methods": {},
    "version": 1
  },
  "userdoc": {
    "kind": "user",
    "methods": {},
    "version": 1
  }
}