{
  "contractName": "KingOfEther",
  "abi": [
    {
      "inputs": [],
      "name": "balance",
      "outputs": [
        {
          "internalType": "uint256",
          "name": "",
          "type": "uint256"
        }
      ],
      "stateMutability": "view",
      "type": "function"
    },
    {
      "inputs": [
        {
          "internalType": "address",
          "name": "",
          "type": "address"
        }
      ],
      "name": "balances",
      "outputs": [
        {
          "internalType": "uint256",
          "name": "",
          "type": "uint256"
        }
      ],
      "stateMutability": "view",
      "type": "function"
    },
    {
      "inputs": [],
      "name": "king",
      "outputs": [
        {
          "internalType": "address",
          "name": "",
          "type": "address"
        }
      ],
      "stateMutability": "view",
      "type": "function"
    },
    {
      "inputs": [],
      "name": "claimThrone",
      "outputs": [],
      "stateMutability": "payable",
      "type": "function"
    },
    {
      "inputs": [],
      "name": "withdraw",
      "outputs": [],
      "stateMutability": "nonpayable",
      "type": "function"
    }
  ],
  "bytecode": "0x608060405234801561001057600080fd5b5061077d806100206000396000f3fe60806040526004361061004a5760003560e01c806327e235e31461004f5780633ccfd60b1461008c57806369deb7b7146100a3578063b69ef8a8146100ad578063cc181ca8146100d8575b600080fd5b34801561005b57600080fd5b5061007660048036038101906100719190610476565b610103565b60405161008391906104bc565b60405180910390f35b34801561009857600080fd5b506100a161011b565b005b6100ab6102e3565b005b3480156100b957600080fd5b506100c26103e9565b6040516100cf91906104bc565b60405180910390f35b3480156100e457600080fd5b506100ed6103ef565b6040516100fa91906104e6565b60405180910390f35b60026020528060005260406000206000915090505481565b60008054906101000a900473ffffffffffffffffffffffffffffffffffffffff1673ffffffffffffffffffffffffffffffffffffffff163373ffffffffffffffffffffffffffffffffffffffff1614156101aa576040517f08c379a00000000000000000000000000000000000000000000000000000000081526004016101a19061055e565b60405180910390fd5b6000600260003373ffffffffffffffffffffffffffffffffffffffff1673ffffffffffffffffffffffffffffffffffffffff1681526020019081526020016000205490506000600260003373ffffffffffffffffffffffffffffffffffffffff1673ffffffffffffffffffffffffffffffffffffffff1681526020019081526020016000208190555060003373ffffffffffffffffffffffffffffffffffffffff1682604051610259906105af565b60006040518083038185875af1925050503d8060008114610296576040519150601f19603f3d011682016040523d82523d6000602084013e61029b565b606091505b50509050806102df576040517f08c379a00000000000000000000000000000000000000000000000000000000081526004016102d690610610565b60405180910390fd5b5050565b6001543411610327576040517f08c379a000000000000000000000000000000000000000000000000000000000815260040161031e906106a2565b60405180910390fd5b600154600260008060009054906101000a900473ffffffffffffffffffffffffffffffffffffffff1673ffffffffffffffffffffffffffffffffffffffff1673ffffffffffffffffffffffffffffffffffffffff168152602001908152602001600020600082825461039991906106f1565b9250508190555034600181905550336000806101000a81548173ffffffffffffffffffffffffffffffffffffffff021916908373ffffffffffffffffffffffffffffffffffffffff160217905550565b60015481565b60008054906101000a900473ffffffffffffffffffffffffffffffffffffffff1681565b600080fd5b600073ffffffffffffffffffffffffffffffffffffffff82169050919050565b600061044382610418565b9050919050565b61045381610438565b811461045e57600080fd5b50565b6000813590506104708161044a565b92915050565b60006020828403121561048c5761048b610413565b5b600061049a84828501610461565b91505092915050565b6000819050919050565b6104b6816104a3565b82525050565b60006020820190506104d160008301846104ad565b92915050565b6104e081610438565b82525050565b60006020820190506104fb60008301846104d7565b92915050565b600082825260208201905092915050565b7f63757272656e74206b696e672063616e6e6f7420776974686472617700000000600082015250565b6000610548601c83610501565b915061055382610512565b602082019050919050565b600060208201905081810360008301526105778161053b565b9050919050565b600081905092915050565b50565b600061059960008361057e565b91506105a482610589565b600082019050919050565b60006105ba8261058c565b9150819050919050565b7f6661696c656420746f2073656e64206574686572000000000000000000000000600082015250565b60006105fa601483610501565b9150610605826105c4565b602082019050919050565b60006020820190508181036000830152610629816105ed565b9050919050565b7f6e65656420746f20706179206d6f726520746f206265636f6d6520746865206b60008201527f696e670000000000000000000000000000000000000000000000000000000000602082015250565b600061068c602383610501565b915061069782610630565b604082019050919050565b600060208201905081810360008301526106bb8161067f565b9050919050565b7f4e487b7100000000000000000000000000000000000000000000000000000000600052601160045260246000fd5b60006106fc826104a3565b9150610707836104a3565b9250827fffffffffffffffffffffffffffffffffffffffffffffffffffffffffffffffff0382111561073c5761073b6106c2565b5b82820190509291505056fea2646970667358221220b69cddda81957a8b65bb0a596865ff4445b5b91650a8a85dcead93b8a4d6b57964736f6c634300080b0033",
  "immutableReferences": {},
  "source": "// SPDX-License-Identifier: MIT\npragma solidity ^0.8.10;\n\ncontract KingOfEther {\n    address public king;\n    uint public balance;\n    mapping(address => uint) public balances;\n\n    function claimThrone() external payable {\n        require(msg.value > balance, \"need to pay more to become the king\");\n\n        balances[king] += balance;\n\n        balance = msg.value;\n        king = msg.sender;\n    }\n\n    function withdraw() public {\n        require(msg.sender != king, \"current king cannot withdraw\");\n\n        uint amount = balances[msg.sender];\n        balances[msg.sender] = 0;\n\n        (bool sent, ) = msg.sender.call{value: amount}(\"\");\n        require(sent, \"failed to send ether\");\n    }\n}",
  "sourcePath": "/Users/mac/Documents/GitHub/CodeSnippets/Solidity/polygon/contracts/KingOfEther.sol",
  "compiler": {
    "name": "solc",
    "version": "0.8.11+commit.d7f03943.Emscripten.clang"
  },
  "schemaVersion": "3.4.4",
  "updatedAt": "2021-12-25T14:40:38.955Z",
  "devdoc": {
    "kind": "dev",
    "methods": {},
    "version": 1
  },
  "userdoc": {
    "kind": "user",
    "methods": {},
    "version": 1
  }
}