{
  "contractName": "MinimalProxy",
  "abi": [
    {
      "inputs": [
        {
          "internalType": "address",
          "name": "target",
          "type": "address"
        }
      ],
      "name": "clone",
      "outputs": [
        {
          "internalType": "address",
          "name": "result",
          "type": "address"
        }
      ],
      "stateMutability": "nonpayable",
      "type": "function"
    }
  ],
  "bytecode": "0x608060405234801561001057600080fd5b506101ba806100206000396000f3fe608060405234801561001057600080fd5b506004361061002b5760003560e01c80638124b78e14610030575b600080fd5b61004a6004803603810190610045919061012d565b610060565b6040516100579190610169565b60405180910390f35b6000808260601b90506040517f3d602d80600a3d3981f3363d3d373d3d3d363d7300000000000000000000000081528160148201527f5af43d82803e903d91602b57fd5bf3000000000000000000000000000000000060288201526037816000f092505050919050565b600080fd5b600073ffffffffffffffffffffffffffffffffffffffff82169050919050565b60006100fa826100cf565b9050919050565b61010a816100ef565b811461011557600080fd5b50565b60008135905061012781610101565b92915050565b600060208284031215610143576101426100ca565b5b600061015184828501610118565b91505092915050565b610163816100ef565b82525050565b600060208201905061017e600083018461015a565b9291505056fea2646970667358221220d79a91285043d0fe502225a798f8f07f68d47274f9beb3b0d2ffb1f4c55934d764736f6c634300080b0033",
  "immutableReferences": {},
  "source": "// SPDX-License-Identifier: MIT\npragma solidity ^0.8.10;\n\n// original code\n// https://github.com/optionality/clone-factory/blob/master/contracts/CloneFactory.sol\n\ncontract MinimalProxy {\n    function clone(address target) external returns (address result) {\n        // convert address to 20 bytes\n        bytes20 targetBytes = bytes20(target);\n\n        // actual code //\n        // 3d602d80600a3d3981f3363d3d373d3d3d363d73bebebebebebebebebebebebebebebebebebebebe5af43d82803e903d91602b57fd5bf3\n\n        // creation code //\n        // copy runtime code into memory and return it\n        // 3d602d80600a3d3981f3\n\n        // runtime code //\n        // code to delegatecall to address\n        // 363d3d373d3d3d363d73 address 5af43d82803e903d91602b57fd5bf3\n\n        assembly {\n            /*\n            reads the 32 bytes of memory starting at pointer stored in 0x40\n\n            In solidity, the 0x40 slot in memory is special: it contains the \"free memory pointer\"\n            which points to the end of the currently allocated memory.\n            */\n            let clone := mload(0x40)\n            // store 32 bytes to memory starting at \"clone\"\n            mstore(\n                clone,\n                0x3d602d80600a3d3981f3363d3d373d3d3d363d73000000000000000000000000\n            )\n\n            /*\n              |              20 bytes                |\n            0x3d602d80600a3d3981f3363d3d373d3d3d363d73000000000000000000000000\n                                                      ^\n                                                      pointer\n            */\n            // store 32 bytes to memory starting at \"clone\" + 20 bytes\n            // 0x14 = 20\n            mstore(add(clone, 0x14), targetBytes)\n\n            /*\n              |               20 bytes               |                 20 bytes              |\n            0x3d602d80600a3d3981f3363d3d373d3d3d363d73bebebebebebebebebebebebebebebebebebebebe\n                                                                                              ^\n                                                                                              pointer\n            */\n            // store 32 bytes to memory starting at \"clone\" + 40 bytes\n            // 0x28 = 40\n            mstore(\n                add(clone, 0x28),\n                0x5af43d82803e903d91602b57fd5bf30000000000000000000000000000000000\n            )\n\n            /*\n              |               20 bytes               |                 20 bytes              |           15 bytes          |\n            0x3d602d80600a3d3981f3363d3d373d3d3d363d73bebebebebebebebebebebebebebebebebebebebe5af43d82803e903d91602b57fd5bf3\n            */\n            // create new contract\n            // send 0 Ether\n            // code starts at pointer stored in \"clone\"\n            // code size 0x37 (55 bytes)\n            result := create(0, clone, 0x37)\n        }\n    }\n}",
  "sourcePath": "/Users/mac/Documents/GitHub/CodeSnippets/Solidity/polygon/contracts/MinimalProxy.sol",
  "compiler": {
    "name": "solc",
    "version": "0.8.11+commit.d7f03943.Emscripten.clang"
  },
  "schemaVersion": "3.4.4",
  "updatedAt": "2021-12-25T09:52:50.779Z",
  "devdoc": {
    "kind": "dev",
    "methods": {},
    "version": 1
  },
  "userdoc": {
    "kind": "user",
    "methods": {},
    "version": 1
  }
}