{
  "contractName": "Primitives",
  "abi": [
    {
      "inputs": [],
      "name": "addr",
      "outputs": [
        {
          "internalType": "address",
          "name": "",
          "type": "address"
        }
      ],
      "stateMutability": "view",
      "type": "function"
    },
    {
      "inputs": [],
      "name": "boo",
      "outputs": [
        {
          "internalType": "bool",
          "name": "",
          "type": "bool"
        }
      ],
      "stateMutability": "view",
      "type": "function"
    },
    {
      "inputs": [],
      "name": "defaultAddr",
      "outputs": [
        {
          "internalType": "address",
          "name": "",
          "type": "address"
        }
      ],
      "stateMutability": "view",
      "type": "function"
    },
    {
      "inputs": [],
      "name": "defaultBoo",
      "outputs": [
        {
          "internalType": "bool",
          "name": "",
          "type": "bool"
        }
      ],
      "stateMutability": "view",
      "type": "function"
    },
    {
      "inputs": [],
      "name": "defaultInt",
      "outputs": [
        {
          "internalType": "int256",
          "name": "",
          "type": "int256"
        }
      ],
      "stateMutability": "view",
      "type": "function"
    },
    {
      "inputs": [],
      "name": "defaultUint",
      "outputs": [
        {
          "internalType": "uint256",
          "name": "",
          "type": "uint256"
        }
      ],
      "stateMutability": "view",
      "type": "function"
    },
    {
      "inputs": [],
      "name": "i",
      "outputs": [
        {
          "internalType": "int256",
          "name": "",
          "type": "int256"
        }
      ],
      "stateMutability": "view",
      "type": "function"
    },
    {
      "inputs": [],
      "name": "i256",
      "outputs": [
        {
          "internalType": "int256",
          "name": "",
          "type": "int256"
        }
      ],
      "stateMutability": "view",
      "type": "function"
    },
    {
      "inputs": [],
      "name": "i8",
      "outputs": [
        {
          "internalType": "int8",
          "name": "",
          "type": "int8"
        }
      ],
      "stateMutability": "view",
      "type": "function"
    },
    {
      "inputs": [],
      "name": "u",
      "outputs": [
        {
          "internalType": "uint256",
          "name": "",
          "type": "uint256"
        }
      ],
      "stateMutability": "view",
      "type": "function"
    },
    {
      "inputs": [],
      "name": "u256",
      "outputs": [
        {
          "internalType": "uint256",
          "name": "",
          "type": "uint256"
        }
      ],
      "stateMutability": "view",
      "type": "function"
    },
    {
      "inputs": [],
      "name": "u8",
      "outputs": [
        {
          "internalType": "uint8",
          "name": "",
          "type": "uint8"
        }
      ],
      "stateMutability": "view",
      "type": "function"
    }
  ],
  "bytecode": "0x608060405260016000806101000a81548160ff0219169083151502179055506001600060016101000a81548160ff021916908360ff1602179055506101c8600155607b6002557fffffffffffffffffffffffffffffffffffffffffffffffffffffffffffffffff600360006101000a81548160ff021916908360000b60ff1602179055506101c86004557fffffffffffffffffffffffffffffffffffffffffffffffffffffffffffffff8560055573ca35b7d915458ef540ade6068dfe2f44e8fa733c600660006101000a81548173ffffffffffffffffffffffffffffffffffffffff021916908373ffffffffffffffffffffffffffffffffffffffff16021790555060b560f81b600660146101000a81548160ff021916908360f81c0217905550605660f81b600660156101000a81548160ff021916908360f81c021790555034801561014c57600080fd5b506104798061015c6000396000f3fe608060405234801561001057600080fd5b50600436106100b45760003560e01c8063767800de11610071578063767800de1461016d578063921cda741461018b578063ab3a58a3146101a9578063c6a898c5146101c7578063e5aa3d58146101e5578063f2427d3714610203576100b4565b8063074eef3f146100b95780631570c2cb146100d7578063459b1acf146100f55780634b3df200146101135780634c27fd62146101315780635abe622b1461014f575b600080fd5b6100c1610221565b6040516100ce91906102f6565b60405180910390f35b6100df610234565b6040516100ec919061032a565b60405180910390f35b6100fd61023a565b60405161010a919061032a565b60405180910390f35b61011b610240565b60405161012891906102f6565b60405180910390f35b610139610251565b604051610146919061035e565b60405180910390f35b610157610257565b604051610164919061035e565b60405180910390f35b61017561025d565b60405161018291906103ba565b60405180910390f35b610193610283565b6040516101a091906103f1565b60405180910390f35b6101b1610296565b6040516101be9190610428565b60405180910390f35b6101cf6102a9565b6040516101dc919061032a565b60405180910390f35b6101ed6102af565b6040516101fa919061035e565b60405180910390f35b61020b6102b5565b60405161021891906103ba565b60405180910390f35b600660169054906101000a900460ff1681565b60075481565b60015481565b60008054906101000a900460ff1681565b60045481565b60085481565b600660009054906101000a900473ffffffffffffffffffffffffffffffffffffffff1681565b600360009054906101000a900460000b81565b600060019054906101000a900460ff1681565b60025481565b60055481565b600960009054906101000a900473ffffffffffffffffffffffffffffffffffffffff1681565b60008115159050919050565b6102f0816102db565b82525050565b600060208201905061030b60008301846102e7565b92915050565b6000819050919050565b61032481610311565b82525050565b600060208201905061033f600083018461031b565b92915050565b6000819050919050565b61035881610345565b82525050565b6000602082019050610373600083018461034f565b92915050565b600073ffffffffffffffffffffffffffffffffffffffff82169050919050565b60006103a482610379565b9050919050565b6103b481610399565b82525050565b60006020820190506103cf60008301846103ab565b92915050565b60008160000b9050919050565b6103eb816103d5565b82525050565b600060208201905061040660008301846103e2565b92915050565b600060ff82169050919050565b6104228161040c565b82525050565b600060208201905061043d6000830184610419565b9291505056fea2646970667358221220dba319e6295d8b6e75aceeccc663422a7f9383f4c2fc4579be583c0ac099ed3264736f6c634300080b0033",
  "immutableReferences": {},
  "source": "// SPDX-License-Identifier: MIT\npragma solidity ^0.8.10;\n\ncontract Primitives {\n    bool public boo = true;\n    uint8 public u8 = 1;\n    uint public u256 = 456;\n    uint public u = 123;\n    int8 public i8 = -1;\n    int public i256 = 456;\n    int public i = -123;\n    // int public minInt = type(int).min;\n    // int public maxInt = type(int).max;\n    address public addr = 0xCA35b7d915458EF540aDe6068dFe2F44E8fa733c;\n    bytes1 a = 0xb5;\n    bytes1 b = 0x56;\n\n    bool public defaultBoo; // false\n    uint public defaultUint; // 0\n    int public defaultInt; // 0\n    address public defaultAddr; // 0x0000000000000000000000000000000000000000\n}",
  "sourcePath": "/Users/mac/Documents/GitHub/CodeSnippets/Solidity/polygon/contracts/Primitives.sol",
  "compiler": {
    "name": "solc",
    "version": "0.8.11+commit.d7f03943.Emscripten.clang"
  },
  "schemaVersion": "3.4.4",
  "updatedAt": "2021-12-25T08:34:32.202Z",
  "devdoc": {
    "kind": "dev",
    "methods": {},
    "version": 1
  },
  "userdoc": {
    "kind": "user",
    "methods": {},
    "version": 1
  }
}