{
  "contractName": "Roulette",
  "abi": [
    {
      "inputs": [],
      "stateMutability": "payable",
      "type": "constructor"
    },
    {
      "inputs": [],
      "name": "pastBlockTime",
      "outputs": [
        {
          "internalType": "uint256",
          "name": "",
          "type": "uint256"
        }
      ],
      "stateMutability": "view",
      "type": "function"
    },
    {
      "inputs": [],
      "name": "spin",
      "outputs": [],
      "stateMutability": "payable",
      "type": "function"
    }
  ],
  "bytecode": "0x60806040526102e5806100136000396000f3fe6080604052600436106100295760003560e01c806358d02b091461002e578063f0acd7d514610059575b600080fd5b34801561003a57600080fd5b50610043610063565b6040516100509190610171565b60405180910390f35b610061610069565b005b60005481565b678ac7230489e80000341461007d57600080fd5b60005442141561008c57600080fd5b426000819055506000600f426100a291906101bb565b14156101565760003373ffffffffffffffffffffffffffffffffffffffff16476040516100ce9061021d565b60006040518083038185875af1925050503d806000811461010b576040519150601f19603f3d011682016040523d82523d6000602084013e610110565b606091505b5050905080610154576040517f08c379a000000000000000000000000000000000000000000000000000000000815260040161014b9061028f565b60405180910390fd5b505b565b6000819050919050565b61016b81610158565b82525050565b60006020820190506101866000830184610162565b92915050565b7f4e487b7100000000000000000000000000000000000000000000000000000000600052601260045260246000fd5b60006101c682610158565b91506101d183610158565b9250826101e1576101e061018c565b5b828206905092915050565b600081905092915050565b50565b60006102076000836101ec565b9150610212826101f7565b600082019050919050565b6000610228826101fa565b9150819050919050565b600082825260208201905092915050565b7f6661696c656420746f2073656e64206574686572000000000000000000000000600082015250565b6000610279601483610232565b915061028482610243565b602082019050919050565b600060208201905081810360008301526102a88161026c565b905091905056fea2646970667358221220e13ce009a62cbe7cee67debd9da74430ea662a097789480b593ea16e848e2aff64736f6c634300080b0033",
  "immutableReferences": {},
  "source": "// SPDX-License-Identifier: MIT\npragma solidity ^0.8.10;\n\ncontract Roulette {\n    uint public pastBlockTime;\n\n    constructor() payable {}\n\n    function spin() external payable {\n        require(msg.value == 10 ether);\n        require(block.timestamp != pastBlockTime);\n\n        pastBlockTime = block.timestamp;\n\n        if (block.timestamp % 15 == 0) {\n            (bool sent, ) = msg.sender.call{value: address(this).balance}(\"\");\n            require(sent, \"failed to send ether\");\n        }\n    }\n}",
  "sourcePath": "/Users/mac/Documents/GitHub/CodeSnippets/Solidity/polygon/contracts/Roulette.sol",
  "compiler": {
    "name": "solc",
    "version": "0.8.11+commit.d7f03943.Emscripten.clang"
  },
  "schemaVersion": "3.4.4",
  "updatedAt": "2021-12-25T15:01:33.113Z",
  "devdoc": {
    "kind": "dev",
    "methods": {},
    "version": 1
  },
  "userdoc": {
    "kind": "user",
    "methods": {},
    "version": 1
  }
}