{
  "contractName": "UniDirectionalPaymentChannel",
  "abi": [
    {
      "inputs": [
        {
          "internalType": "address payable",
          "name": "_receiver",
          "type": "address"
        }
      ],
      "stateMutability": "payable",
      "type": "constructor"
    },
    {
      "inputs": [],
      "name": "expiresAt",
      "outputs": [
        {
          "internalType": "uint256",
          "name": "",
          "type": "uint256"
        }
      ],
      "stateMutability": "view",
      "type": "function"
    },
    {
      "inputs": [],
      "name": "receiver",
      "outputs": [
        {
          "internalType": "address payable",
          "name": "",
          "type": "address"
        }
      ],
      "stateMutability": "view",
      "type": "function"
    },
    {
      "inputs": [],
      "name": "sender",
      "outputs": [
        {
          "internalType": "address payable",
          "name": "",
          "type": "address"
        }
      ],
      "stateMutability": "view",
      "type": "function"
    },
    {
      "inputs": [
        {
          "internalType": "uint256",
          "name": "_amount",
          "type": "uint256"
        }
      ],
      "name": "getHash",
      "outputs": [
        {
          "internalType": "bytes32",
          "name": "",
          "type": "bytes32"
        }
      ],
      "stateMutability": "view",
      "type": "function"
    },
    {
      "inputs": [
        {
          "internalType": "uint256",
          "name": "_amount",
          "type": "uint256"
        }
      ],
      "name": "getEthSignedHash",
      "outputs": [
        {
          "internalType": "bytes32",
          "name": "",
          "type": "bytes32"
        }
      ],
      "stateMutability": "view",
      "type": "function"
    },
    {
      "inputs": [
        {
          "internalType": "uint256",
          "name": "_amount",
          "type": "uint256"
        },
        {
          "internalType": "bytes",
          "name": "_sig",
          "type": "bytes"
        }
      ],
      "name": "verify",
      "outputs": [
        {
          "internalType": "bool",
          "name": "",
          "type": "bool"
        }
      ],
      "stateMutability": "view",
      "type": "function"
    },
    {
      "inputs": [
        {
          "internalType": "uint256",
          "name": "_amount",
          "type": "uint256"
        },
        {
          "internalType": "bytes",
          "name": "_sig",
          "type": "bytes"
        }
      ],
      "name": "close",
      "outputs": [],
      "stateMutability": "nonpayable",
      "type": "function"
    },
    {
      "inputs": [],
      "name": "cancel",
      "outputs": [],
      "stateMutability": "nonpayable",
      "type": "function"
    }
  ],
  "bytecode": "0x60806040526040516200172a3803806200172a8339818101604052810190620000299190620001ae565b6001600081905550600073ffffffffffffffffffffffffffffffffffffffff168173ffffffffffffffffffffffffffffffffffffffff161415620000a4576040517f08c379a00000000000000000000000000000000000000000000000000000000081526004016200009b9062000241565b60405180910390fd5b33600160006101000a81548173ffffffffffffffffffffffffffffffffffffffff021916908373ffffffffffffffffffffffffffffffffffffffff16021790555080600260006101000a81548173ffffffffffffffffffffffffffffffffffffffff021916908373ffffffffffffffffffffffffffffffffffffffff16021790555062093a80426200013791906200029c565b60038190555050620002f9565b600080fd5b600073ffffffffffffffffffffffffffffffffffffffff82169050919050565b6000620001768262000149565b9050919050565b620001888162000169565b81146200019457600080fd5b50565b600081519050620001a8816200017d565b92915050565b600060208284031215620001c757620001c662000144565b5b6000620001d78482850162000197565b91505092915050565b600082825260208201905092915050565b7f7265636569766572203d207a65726f2061646472657373000000000000000000600082015250565b600062000229601783620001e0565b91506200023682620001f1565b602082019050919050565b600060208201905081810360008301526200025c816200021a565b9050919050565b6000819050919050565b7f4e487b7100000000000000000000000000000000000000000000000000000000600052601160045260246000fd5b6000620002a98262000263565b9150620002b68362000263565b9250827fffffffffffffffffffffffffffffffffffffffffffffffffffffffffffffffff03821115620002ee57620002ed6200026d565b5b828201905092915050565b61142180620003096000396000f3fe608060405234801561001057600080fd5b50600436106100885760003560e01c806385852ce41161005b57806385852ce4146101275780638622a68914610157578063ea8a1af014610175578063f7260d3e1461017f57610088565b8063415ffba71461008d578063552f50b6146100a957806367e404ce146100d95780636b2fafa9146100f7575b600080fd5b6100a760048036038101906100a29190610bc2565b61019d565b005b6100c360048036038101906100be9190610c1e565b6103cd565b6040516100d09190610c64565b60405180910390f35b6100e16103df565b6040516100ee9190610cc0565b60405180910390f35b610111600480360381019061010c9190610c1e565b610405565b60405161011e9190610c64565b60405180910390f35b610141600480360381019061013c9190610bc2565b610417565b60405161014e9190610cf6565b60405180910390f35b61015f61042b565b60405161016c9190610d20565b60405180910390f35b61017d610431565b005b610187610541565b6040516101949190610cc0565b60405180910390f35b600260005414156101e3576040517f08c379a00000000000000000000000000000000000000000000000000000000081526004016101da90610d98565b60405180910390fd5b6002600081905550600260009054906101000a900473ffffffffffffffffffffffffffffffffffffffff1673ffffffffffffffffffffffffffffffffffffffff163373ffffffffffffffffffffffffffffffffffffffff161461027b576040517f08c379a000000000000000000000000000000000000000000000000000000000815260040161027290610e04565b60405180910390fd5b6102858282610567565b6102c4576040517f08c379a00000000000000000000000000000000000000000000000000000000081526004016102bb90610e70565b60405180910390fd5b6000600260009054906101000a900473ffffffffffffffffffffffffffffffffffffffff1673ffffffffffffffffffffffffffffffffffffffff168360405161030c90610ec1565b60006040518083038185875af1925050503d8060008114610349576040519150601f19603f3d011682016040523d82523d6000602084013e61034e565b606091505b5050905080610392576040517f08c379a000000000000000000000000000000000000000000000000000000000815260040161038990610f22565b60405180910390fd5b600160009054906101000a900473ffffffffffffffffffffffffffffffffffffffff1673ffffffffffffffffffffffffffffffffffffffff16ff5b60006103d8826105dc565b9050919050565b600160009054906101000a900473ffffffffffffffffffffffffffffffffffffffff1681565b6000610410826105f6565b9050919050565b60006104238383610567565b905092915050565b60035481565b600160009054906101000a900473ffffffffffffffffffffffffffffffffffffffff1673ffffffffffffffffffffffffffffffffffffffff163373ffffffffffffffffffffffffffffffffffffffff16146104c1576040517f08c379a00000000000000000000000000000000000000000000000000000000081526004016104b890610f8e565b60405180910390fd5b600354421015610506576040517f08c379a00000000000000000000000000000000000000000000000000000000081526004016104fd90610ffa565b60405180910390fd5b600160009054906101000a900473ffffffffffffffffffffffffffffffffffffffff1673ffffffffffffffffffffffffffffffffffffffff16ff5b600260009054906101000a900473ffffffffffffffffffffffffffffffffffffffff1681565b6000600160009054906101000a900473ffffffffffffffffffffffffffffffffffffffff1673ffffffffffffffffffffffffffffffffffffffff166105bd836105af866105dc565b61062890919063ffffffff16565b73ffffffffffffffffffffffffffffffffffffffff1614905092915050565b60006105ef6105ea836105f6565b61064f565b9050919050565b6000308260405160200161060b929190611095565b604051602081830303815290604052805190602001209050919050565b6000806000610637858561067f565b9150915061064481610702565b819250505092915050565b6000816040516020016106629190611139565b604051602081830303815290604052805190602001209050919050565b6000806041835114156106c15760008060006020860151925060408601519150606086015160001a90506106b5878285856108d7565b945094505050506106fb565b6040835114156106f25760008060208501519150604085015190506106e78683836109e4565b9350935050506106fb565b60006002915091505b9250929050565b600060048111156107165761071561115f565b5b8160048111156107295761072861115f565b5b1415610734576108d4565b600160048111156107485761074761115f565b5b81600481111561075b5761075a61115f565b5b141561079c576040517f08c379a0000000000000000000000000000000000000000000000000000000008152600401610793906111da565b60405180910390fd5b600260048111156107b0576107af61115f565b5b8160048111156107c3576107c261115f565b5b1415610804576040517f08c379a00000000000000000000000000000000000000000000000000000000081526004016107fb90611246565b60405180910390fd5b600360048111156108185761081761115f565b5b81600481111561082b5761082a61115f565b5b141561086c576040517f08c379a0000000000000000000000000000000000000000000000000000000008152600401610863906112d8565b60405180910390fd5b60048081111561087f5761087e61115f565b5b8160048111156108925761089161115f565b5b14156108d3576040517f08c379a00000000000000000000000000000000000000000000000000000000081526004016108ca9061136a565b60405180910390fd5b5b50565b6000807f7fffffffffffffffffffffffffffffff5d576e7357a4501ddfe92f46681b20a08360001c11156109125760006003915091506109db565b601b8560ff161415801561092a5750601c8560ff1614155b1561093c5760006004915091506109db565b60006001878787876040516000815260200160405260405161096194939291906113a6565b6020604051602081039080840390855afa158015610983573d6000803e3d6000fd5b505050602060405103519050600073ffffffffffffffffffffffffffffffffffffffff168173ffffffffffffffffffffffffffffffffffffffff1614156109d2576000600192509250506109db565b80600092509250505b94509492505050565b6000806000807f7fffffffffffffffffffffffffffffffffffffffffffffffffffffffffffffff85169150601b8560ff1c019050610a24878288856108d7565b935093505050935093915050565b6000604051905090565b600080fd5b600080fd5b6000819050919050565b610a5981610a46565b8114610a6457600080fd5b50565b600081359050610a7681610a50565b92915050565b600080fd5b600080fd5b6000601f19601f8301169050919050565b7f4e487b7100000000000000000000000000000000000000000000000000000000600052604160045260246000fd5b610acf82610a86565b810181811067ffffffffffffffff82111715610aee57610aed610a97565b5b80604052505050565b6000610b01610a32565b9050610b0d8282610ac6565b919050565b600067ffffffffffffffff821115610b2d57610b2c610a97565b5b610b3682610a86565b9050602081019050919050565b82818337600083830152505050565b6000610b65610b6084610b12565b610af7565b905082815260208101848484011115610b8157610b80610a81565b5b610b8c848285610b43565b509392505050565b600082601f830112610ba957610ba8610a7c565b5b8135610bb9848260208601610b52565b91505092915050565b60008060408385031215610bd957610bd8610a3c565b5b6000610be785828601610a67565b925050602083013567ffffffffffffffff811115610c0857610c07610a41565b5b610c1485828601610b94565b9150509250929050565b600060208284031215610c3457610c33610a3c565b5b6000610c4284828501610a67565b91505092915050565b6000819050919050565b610c5e81610c4b565b82525050565b6000602082019050610c796000830184610c55565b92915050565b600073ffffffffffffffffffffffffffffffffffffffff82169050919050565b6000610caa82610c7f565b9050919050565b610cba81610c9f565b82525050565b6000602082019050610cd56000830184610cb1565b92915050565b60008115159050919050565b610cf081610cdb565b82525050565b6000602082019050610d0b6000830184610ce7565b92915050565b610d1a81610a46565b82525050565b6000602082019050610d356000830184610d11565b92915050565b600082825260208201905092915050565b7f5265656e7472616e637947756172643a207265656e7472616e742063616c6c00600082015250565b6000610d82601f83610d3b565b9150610d8d82610d4c565b602082019050919050565b60006020820190508181036000830152610db181610d75565b9050919050565b7f2172656365697665720000000000000000000000000000000000000000000000600082015250565b6000610dee600983610d3b565b9150610df982610db8565b602082019050919050565b60006020820190508181036000830152610e1d81610de1565b9050919050565b7f696e76616c696420736967000000000000000000000000000000000000000000600082015250565b6000610e5a600b83610d3b565b9150610e6582610e24565b602082019050919050565b60006020820190508181036000830152610e8981610e4d565b9050919050565b600081905092915050565b50565b6000610eab600083610e90565b9150610eb682610e9b565b600082019050919050565b6000610ecc82610e9e565b9150819050919050565b7f6661696c656420746f2073656e64206574686572000000000000000000000000600082015250565b6000610f0c601483610d3b565b9150610f1782610ed6565b602082019050919050565b60006020820190508181036000830152610f3b81610eff565b9050919050565b7f2173656e64657200000000000000000000000000000000000000000000000000600082015250565b6000610f78600783610d3b565b9150610f8382610f42565b602082019050919050565b60006020820190508181036000830152610fa781610f6b565b9050919050565b7f2165787069726564000000000000000000000000000000000000000000000000600082015250565b6000610fe4600883610d3b565b9150610fef82610fae565b602082019050919050565b6000602082019050818103600083015261101381610fd7565b9050919050565b600061102582610c7f565b9050919050565b60008160601b9050919050565b60006110448261102c565b9050919050565b600061105682611039565b9050919050565b61106e6110698261101a565b61104b565b82525050565b6000819050919050565b61108f61108a82610a46565b611074565b82525050565b60006110a1828561105d565b6014820191506110b1828461107e565b6020820191508190509392505050565b600081905092915050565b7f19457468657265756d205369676e6564204d6573736167653a0a333200000000600082015250565b6000611102601c836110c1565b915061110d826110cc565b601c82019050919050565b6000819050919050565b61113361112e82610c4b565b611118565b82525050565b6000611144826110f5565b91506111508284611122565b60208201915081905092915050565b7f4e487b7100000000000000000000000000000000000000000000000000000000600052602160045260246000fd5b7f45434453413a20696e76616c6964207369676e61747572650000000000000000600082015250565b60006111c4601883610d3b565b91506111cf8261118e565b602082019050919050565b600060208201905081810360008301526111f3816111b7565b9050919050565b7f45434453413a20696e76616c6964207369676e6174757265206c656e67746800600082015250565b6000611230601f83610d3b565b915061123b826111fa565b602082019050919050565b6000602082019050818103600083015261125f81611223565b9050919050565b7f45434453413a20696e76616c6964207369676e6174757265202773272076616c60008201527f7565000000000000000000000000000000000000000000000000000000000000602082015250565b60006112c2602283610d3b565b91506112cd82611266565b604082019050919050565b600060208201905081810360008301526112f1816112b5565b9050919050565b7f45434453413a20696e76616c6964207369676e6174757265202776272076616c60008201527f7565000000000000000000000000000000000000000000000000000000000000602082015250565b6000611354602283610d3b565b915061135f826112f8565b604082019050919050565b6000602082019050818103600083015261138381611347565b9050919050565b600060ff82169050919050565b6113a08161138a565b82525050565b60006080820190506113bb6000830187610c55565b6113c86020830186611397565b6113d56040830185610c55565b6113e26060830184610c55565b9594505050505056fea2646970667358221220bd7fc15af80b3f19b1df398a9d52f392b4835a5f67fd78ed0aa03b3b1587b24964736f6c634300080b0033",
  "immutableReferences": {},
  "source": "// SPDX-License-Identifier: MIT\npragma solidity ^0.8.10;\n\nimport \"@openzeppelin/contracts/utils/cryptography/ECDSA.sol\";\nimport \"@openzeppelin/contracts/security/ReentrancyGuard.sol\";\n\ncontract UniDirectionalPaymentChannel is ReentrancyGuard {\n    using ECDSA for bytes32;\n\n    address payable public sender;\n    address payable public receiver;\n\n    uint private constant DURATION = 7 * 24 * 60 * 60;\n    uint public expiresAt;\n\n    constructor(address payable _receiver) payable {\n        require(_receiver != address(0), \"receiver = zero address\");\n        sender = payable(msg.sender);\n        receiver = _receiver;\n        expiresAt = block.timestamp + DURATION;\n    }\n\n    function _getHash(uint _amount) private view returns (bytes32) {\n        return keccak256(abi.encodePacked(address(this), _amount));\n    }\n\n    function getHash(uint _amount) external view returns (bytes32) {\n        return _getHash(_amount);\n    }\n\n    function _getEthSignedHash(uint _amount) private view returns (bytes32) {\n        return _getHash(_amount).toEthSignedMessageHash();\n    }\n\n    function getEthSignedHash(uint _amount) external view returns (bytes32) {\n        return _getEthSignedHash(_amount);\n    }\n\n    function _verify(uint _amount, bytes memory _sig) private view returns (bool) {\n        return _getEthSignedHash(_amount).recover(_sig) == sender;\n    }\n\n    function verify(uint _amount, bytes memory _sig) external view returns (bool) {\n        return _verify(_amount, _sig);\n    }\n\n    function close(uint _amount, bytes memory _sig) external nonReentrant {\n        require(msg.sender == receiver, \"!receiver\");\n        require(_verify(_amount, _sig), \"invalid sig\");\n\n        (bool sent, ) = receiver.call{value: _amount}(\"\");\n        require(sent, \"failed to send ether\");\n        selfdestruct(sender);\n    }\n\n    function cancel() external {\n        require(msg.sender == sender, \"!sender\");\n        require(block.timestamp >= expiresAt, \"!expired\");\n        selfdestruct(sender);\n    }\n}",
  "sourcePath": "/Users/mac/Documents/GitHub/CodeSnippets/Solidity/polygon/contracts/UniDirectionalPaymentChannel.sol",
  "compiler": {
    "name": "solc",
    "version": "0.8.11+commit.d7f03943.Emscripten.clang"
  },
  "schemaVersion": "3.4.4",
  "updatedAt": "2021-12-25T13:53:10.270Z",
  "devdoc": {
    "kind": "dev",
    "methods": {},
    "version": 1
  },
  "userdoc": {
    "kind": "user",
    "methods": {},
    "version": 1
  }
}