{
  "contractName": "Vault",
  "abi": [
    {
      "inputs": [
        {
          "internalType": "bytes32",
          "name": "_password",
          "type": "bytes32"
        }
      ],
      "stateMutability": "nonpayable",
      "type": "constructor"
    },
    {
      "inputs": [],
      "name": "count",
      "outputs": [
        {
          "internalType": "uint256",
          "name": "",
          "type": "uint256"
        }
      ],
      "stateMutability": "view",
      "type": "function"
    },
    {
      "inputs": [
        {
          "internalType": "uint256",
          "name": "",
          "type": "uint256"
        }
      ],
      "name": "data",
      "outputs": [
        {
          "internalType": "bytes32",
          "name": "",
          "type": "bytes32"
        }
      ],
      "stateMutability": "view",
      "type": "function"
    },
    {
      "inputs": [],
      "name": "isTrue",
      "outputs": [
        {
          "internalType": "bool",
          "name": "",
          "type": "bool"
        }
      ],
      "stateMutability": "view",
      "type": "function"
    },
    {
      "inputs": [],
      "name": "owner",
      "outputs": [
        {
          "internalType": "address",
          "name": "",
          "type": "address"
        }
      ],
      "stateMutability": "view",
      "type": "function"
    },
    {
      "inputs": [],
      "name": "someConst",
      "outputs": [
        {
          "internalType": "uint256",
          "name": "",
          "type": "uint256"
        }
      ],
      "stateMutability": "view",
      "type": "function"
    },
    {
      "inputs": [],
      "name": "u16",
      "outputs": [
        {
          "internalType": "uint16",
          "name": "",
          "type": "uint16"
        }
      ],
      "stateMutability": "view",
      "type": "function"
    },
    {
      "inputs": [
        {
          "internalType": "bytes32",
          "name": "_password",
          "type": "bytes32"
        }
      ],
      "name": "addUser",
      "outputs": [],
      "stateMutability": "nonpayable",
      "type": "function"
    },
    {
      "inputs": [
        {
          "internalType": "uint256",
          "name": "slot",
          "type": "uint256"
        },
        {
          "internalType": "uint256",
          "name": "index",
          "type": "uint256"
        },
        {
          "internalType": "uint256",
          "name": "elementSize",
          "type": "uint256"
        }
      ],
      "name": "getArrayLocation",
      "outputs": [
        {
          "internalType": "uint256",
          "name": "",
          "type": "uint256"
        }
      ],
      "stateMutability": "pure",
      "type": "function"
    },
    {
      "inputs": [
        {
          "internalType": "uint256",
          "name": "slot",
          "type": "uint256"
        },
        {
          "internalType": "uint256",
          "name": "key",
          "type": "uint256"
        }
      ],
      "name": "getMapLocation",
      "outputs": [
        {
          "internalType": "uint256",
          "name": "",
          "type": "uint256"
        }
      ],
      "stateMutability": "pure",
      "type": "function"
    }
  ],
  "bytecode": "0x6080604052607b60005533600160006101000a81548173ffffffffffffffffffffffffffffffffffffffff021916908373ffffffffffffffffffffffffffffffffffffffff16021790555060018060146101000a81548160ff021916908315150217905550601f600160156101000a81548161ffff021916908361ffff16021790555034801561008e57600080fd5b5060405161088d38038061088d83398181016040528101906100b091906100f8565b8060028190555050610125565b600080fd5b6000819050919050565b6100d5816100c2565b81146100e057600080fd5b50565b6000815190506100f2816100cc565b92915050565b60006020828403121561010e5761010d6100bd565b5b600061011c848285016100e3565b91505092915050565b610759806101346000396000f3fe608060405234801561001057600080fd5b50600436106100925760003560e01c8063881374d711610066578063881374d71461010f5780638da5cb5b1461013f5780638faf850d1461015d578063992ddc6f14610179578063f0ba8440146101a957610092565b806274530a1461009757806306661abd146100b55780630a6b4e06146100d357806359d168b6146100f1575b600080fd5b61009f6101d9565b6040516100ac919061037b565b60405180910390f35b6100bd6101ec565b6040516100ca91906103af565b60405180910390f35b6100db6101f2565b6040516100e891906103e7565b60405180910390f35b6100f9610206565b60405161010691906103af565b60405180910390f35b61012960048036038101906101249190610433565b61020b565b60405161013691906103af565b60405180910390f35b610147610241565b60405161015491906104b4565b60405180910390f35b61017760048036038101906101729190610505565b610267565b005b610193600480360381019061018e9190610532565b6102fa565b6040516101a091906103af565b60405180910390f35b6101c360048036038101906101be9190610585565b610345565b6040516101d091906105c1565b60405180910390f35b600160149054906101000a900460ff1681565b60005481565b600160159054906101000a900461ffff1681565b607b81565b600081836040516020016102209291906105fd565b6040516020818303038152906040528051906020012060001c905092915050565b600160009054906101000a900473ffffffffffffffffffffffffffffffffffffffff1681565b60006040518060400160405280600680549050815260200183815250905060068190806001815401808255809150506001900390600052602060002090600202016000909190919091506000820151816000015560208201518160010155505080600760008360000151815260200190815260200160002060008201518160000155602082015181600101559050505050565b600081836103089190610658565b8460405160200161031991906106b2565b6040516020818303038152906040528051906020012060001c61033c91906106cd565b90509392505050565b6003816003811061035557600080fd5b016000915090505481565b60008115159050919050565b61037581610360565b82525050565b6000602082019050610390600083018461036c565b92915050565b6000819050919050565b6103a981610396565b82525050565b60006020820190506103c460008301846103a0565b92915050565b600061ffff82169050919050565b6103e1816103ca565b82525050565b60006020820190506103fc60008301846103d8565b92915050565b600080fd5b61041081610396565b811461041b57600080fd5b50565b60008135905061042d81610407565b92915050565b6000806040838503121561044a57610449610402565b5b60006104588582860161041e565b92505060206104698582860161041e565b9150509250929050565b600073ffffffffffffffffffffffffffffffffffffffff82169050919050565b600061049e82610473565b9050919050565b6104ae81610493565b82525050565b60006020820190506104c960008301846104a5565b92915050565b6000819050919050565b6104e2816104cf565b81146104ed57600080fd5b50565b6000813590506104ff816104d9565b92915050565b60006020828403121561051b5761051a610402565b5b6000610529848285016104f0565b91505092915050565b60008060006060848603121561054b5761054a610402565b5b60006105598682870161041e565b935050602061056a8682870161041e565b925050604061057b8682870161041e565b9150509250925092565b60006020828403121561059b5761059a610402565b5b60006105a98482850161041e565b91505092915050565b6105bb816104cf565b82525050565b60006020820190506105d660008301846105b2565b92915050565b6000819050919050565b6105f76105f282610396565b6105dc565b82525050565b600061060982856105e6565b60208201915061061982846105e6565b6020820191508190509392505050565b7f4e487b7100000000000000000000000000000000000000000000000000000000600052601160045260246000fd5b600061066382610396565b915061066e83610396565b9250817fffffffffffffffffffffffffffffffffffffffffffffffffffffffffffffffff04831182151516156106a7576106a6610629565b5b828202905092915050565b60006106be82846105e6565b60208201915081905092915050565b60006106d882610396565b91506106e383610396565b9250827fffffffffffffffffffffffffffffffffffffffffffffffffffffffffffffffff0382111561071857610717610629565b5b82820190509291505056fea2646970667358221220d79a2cef9b3b3fda0f9144846904171392987a140dcb4d907c13af3a02ac9b4064736f6c634300080b0033",
  "immutableReferences": {},
  "source": "// SPDX-License-Identifier: MIT\npragma solidity ^0.8.10;\n\ncontract Vault {\n    // slot 0\n    uint public count = 123;\n    // slot 1\n    address public owner = msg.sender;\n    bool public isTrue = true;\n    uint16 public u16 = 31;\n    // slot 2\n    bytes32 private password;\n\n    uint public constant someConst = 123;\n\n    bytes32[3] public data;\n\n    struct User {\n        uint id;\n        bytes32 password;\n    }\n\n    User[] private users;\n\n    mapping(uint => User) private idToUser;\n\n    constructor(bytes32 _password) {\n        password = _password;\n    }\n\n    function addUser(bytes32 _password) public {\n        User memory user = User({\n            id: users.length,\n            password: _password\n        });\n        users.push(user);\n        idToUser[user.id] = user;\n    }\n\n    function getArrayLocation(\n        uint slot,\n        uint index,\n        uint elementSize\n    ) public pure returns (uint) {\n        return uint(keccak256(abi.encodePacked(slot))) + (index * elementSize);\n    }\n\n    function getMapLocation(uint slot, uint key) public pure returns (uint) {\n        return uint(keccak256(abi.encodePacked(key, slot)));\n    }\n}",
  "sourcePath": "/Users/mac/Documents/GitHub/CodeSnippets/Solidity/polygon/contracts/Vault.sol",
  "compiler": {
    "name": "solc",
    "version": "0.8.11+commit.d7f03943.Emscripten.clang"
  },
  "schemaVersion": "3.4.4",
  "updatedAt": "2021-12-25T14:29:05.306Z",
  "devdoc": {
    "kind": "dev",
    "methods": {},
    "version": 1
  },
  "userdoc": {
    "kind": "user",
    "methods": {},
    "version": 1
  }
}